:020000040800F2
:10000000F0FF0010A99E0708E9080708F52103087A
:10001000499F0708499F0708499F070800000000FB
:10002000000000000000000000000000ED080708CC
:10003000F108070800000000F5080708CDBF020816
:10004000499F0708499F0708499F0708499F0708D4
:10005000499F0708499F070891A70208B5A702080A
:10006000EDA7020825A802085DA8020801E1000822
:1000700011E1000821E1000831E1000845E1000834
:1000800059E100086DE10008499F0708499F0708EA
:10009000499F0708499F0708499F070895A8020834
:1000A000A11D0308011D0308B11D0308F11C03086D
:1000B000291D0308391D0308491D0308EDD0000858
:1000C00011D60008F5D0000815D60008499F07088A
:1000D000499F070855B9020859BA02085DBB0208D2
:1000E000CDA80208499F0708A10F0708C11D0308F2
:1000F000791D0308D11D0308691D030881E100086B
:10010000499F0708990B0108591D0308499F0708D3
:1001100061BC020865BD0208499F0708499F07089E
:1001200095E10008A9E10008BDE10008D1E100085F
:10013000E5E10008499F0708499F0708499F07080C
:10014000499F0708499F0708499F0708F9080708BA
:10015000F9E100080DE2000821E2000869BE02088A
:10016000FDD0000819D60008499F0708499F0708D5
:10017000499F0708499F0708499F0708499F0708A3
:08018000499F0708499F070889
:0828000000C00F0800001008E1
:1080000082B01E4B002201920193019B1C4A043353
:108010000193019B1968936803F00C03042B06D0AD
:10802000082B08D0174B184A1A6002B07047154B3E
:10803000196002B070475368506813F4800F00F065
:108040003F00536812D1C3F388130F49B1FBF0F11D
:1080500001FB03F30A4A0B495268C2F301420132A1
:108060005200B3FBF2F30B6002B07047C3F3881306
:10807000B1FBF0F101FB03F3ECE700BF5028004037
:1080800000380240501E00200024F400074BD0F8B6
:10809000E4105B68D0F8F0205B1A9A42B8BFC0F8D1
:1080A000F030012380F81C3100207047001000E000
:1080B00090F8DB30052B03D890F81E31032B01D04C
:1080C0000020704790F8233103F0FB03022B0CBF14
:1080D00000200720704700BFB84B00EB800103EB86
:1080E000C10170B54A685268B2F814E01EF0010F81
:1080F0004FEA800C6ED15FFA8EF4A60742D5BFF32B
:108100005F8F91F82040012CE5B200F0D180118BF7
:10811000BFF35F8F0CEB000103EBC10191F820402E
:10812000022C00F0E7800CEB000103EBC10191F899
:108130002040032C07D191F8221021B193F87D1033
:10814000002940F0E780918889B241F480619180F4
:1081500093F97C100CEB000E03EBCE0E9EF820E0A2
:108160000EF1010E8E450CD1002183F87D1093F89D
:108170007E10002940F0B780604403EBC00300226A
:108180005A7770BD65075DD414F0400400F0CB80D1
:10819000148A93F97C508E6AE4B274555FFA85FEB6
:1081A0000EF1010464B291F8206083F87C40E51C74
:1081B000AE42214600F025810CEB000503EBC5051E
:1081C00095F82050AC42C5D10EF1020149B283F8B6
:1081D0007C10BFE7B2F800E02EF4006E4FEA0E4EBE
:1081E0004FEA1E4EA2F800E01488A4B244F4806462
:1081F000148091F82240002583F87C50002C48D050
:1082000093F87D40002C41D0012183F87D100CEBC8
:10821000000103EBC10191F82010022904D111885B
:1082200089B241F4006111800CEB000103EBC10144
:10823000897F41F001011182604403EBC00393F890
:10824000203070BD91F82240012583F87E50002C2B
:1082500070D093F87D40002C71D10CEB000103EB42
:10826000C10191F82110002900F0AA80118889B27B
:1082700041F40071118093F87C1001314CB283F805
:108280007C401188CE05FCD4214663E7C97FFF29D5
:10829000BAD00CEB000103EBC1018C7F04F0FE04AB
:1082A0001482CA7FFF2AC7D0FF2283F87C20C3E74D
:1082B00091F8221000293FF42AAF93F87D1000298D
:1082C0003FF425AF118821F480610904090C118065
:1082D000BFF35F8F118B118883F87E5089B241F410
:1082E000007111802FE7918821F440710904090C75
:1082F000918041E791F8221000293FF414AF93F8E0
:108300007D1000293FF40FAF118821F4806109042A
:10831000090C1180918821F480610904090C918075
:1083200093F97C1016E71FFA8EF52D062DD493F9DC
:108330007C100FE793F87D1000298ED096E791F816
:108340002040022C148846D924F480642404240C90
:108350001480158A8E6A93F97C40EDB235558E6A89
:10836000118889B241F400711180E4B2158A611C50
:1083700049B2EDB275549188023489B264B241F4C5
:10838000806183F87C4091807BE793F97C506E1C80
:108390003ED04C6A665D16826C1C91F8205064B227
:1083A000A54283F87C4021467FF4D4AE948824F41F
:1083B00080642404240C9480CCE600BF501E00206E
:1083C000118893F97C4089B241F4807111800121B8
:1083D00083F87D1055E7A4B244F400741480158A24
:1083E0008E6A93F97C40EDB23555E4B28E6A158AF7
:1083F000611C49B20334EDB264B2755483F87C4019
:108400003FE7958825F480652D042D0C9580D3E6F3
:1084100083F87C40CC7F148291F8224024B991F8F3
:10842000201000297FF408AF918821F480610904AD
:10843000090C918000E700BF30B5EAB18E464FEAE3
:10844000014C034600F1C005002419689A6841EA0E
:108450000C0142EA0E029A60C3E900140C33AB42ED
:10846000F3D1D0F8C030C0F8C44043EA0E03C0F8DE
:10847000C030C0F8C84030BD4FEA014E8C46E0E73E
:1084800083691969B3F80CC00A6830B49C6822F09B
:10849000010224680A60A28992B222EA0C02A28137
:1084A000027D04681F2A06D96568203A082090409A
:1084B000284245D0FEE72568082090402842F9D19F
:1084C000202000FA02F2A260264A1278002A35D053
:1084D0001A7E012A39D0D3F8F4200132C3F8F420EF
:1084E000EFF31181502282F3128858685C6C0268A5
:1084F00022EA04029C6C2243C9B2026081F3118813
:10850000D3E90C401A6999681D6C096814605061C0
:10851000D3E90E40546090600024B3F8A800D56001
:108520004C62C86210680124204310601C7683F8F6
:10853000F1408A899B8913439BB28B8130BC704781
:10854000202000FA02F2E260BEE7002283F8F12068
:10855000D3F8F8000A68013022F00102C3F8F800ED
:108560000A60EBE70400001010B40C4C6368002BA9
:1085700011DD002004F1080C0146DCF8A03003F105
:10858000C00259600C339342FBD1636801308342CF
:108590000CF5807CF1DC5DF8044B704704000010A2
:1085A000F0B5494C04EB401C9CF8242402B9F0BD02
:1085B000464B4FF08C0E0EFB003E93F8E06493F8B0
:1085C000E1249EF882708CF80A7496424FF0000CF9
:1085D0004FEA40158EF882C00ED002EB420C03EB3E
:1085E000CC0C57009CF8E4C40CF1FF3EBEF1010F27
:1085F0005CD9BCF1030F53D06019A0F80814EFF355
:108600001182902383F3128890F80A34B0F808148A
:1086100043EA41030021D2B29BB280F80A1482F3EC
:1086200011881A09217882EA13225A40D9B1D0F868
:108630002044D0F80C14D4F8A040D2431B019BB2C4
:1086400002F00F0201208840134304F1C0015A00D8
:1086500013F4004F93B202D16268024362600C349B
:108660008C42F4D1F0BDD0F82014D0F80C04D1F82D
:10867000A0401B0100F110019BB202F00F0201208B
:108680008840134304F1C0015A0013F4004F93B221
:1086900002D16268024362600C34A142F4D1F0BDA1
:1086A00002F1010C0CF0030CB445A5D03A4403EBE5
:1086B000C202131893F8F11400299DD06319012206
:1086C00083F80A2498E700BF04000010501E002021
:1086D000704700BF024B03EB401090F82504704731
:1086E000040000104368B0F8502010B41A83EFF370
:1086F0001182502383F312884168446C0B6823EA8B
:108700000403C46C2343D2B20B6082F31188D0E916
:1087100007418268036912681C605961D0E9094108
:108720005C60C46A9960B0F86010DC600023D162BC
:108730005DF8044B03767047037D1F2B30B54FF077
:108740002002046816D9A3F120056168AA400A42F4
:108750000FD00C4A002182F8441541680A681F2B8B
:1087600022F001020A604FF0200206D9203B9A4015
:10877000E26030BD21689A40E9E702FA03F3A360A2
:10878000F7E700BF501E0020037D01681F2B10B5C6
:108790004FF0200217D9A3F120044968A2400A42F1
:1087A00010D00C4A002182F8451541680A681F2B39
:1087B00022F001020A6001684FF0200206D9203B36
:1087C0009A40CA6010BD09689A40E8E702FA03F3CC
:1087D0008B60F7E7501E002007B500238DF80730A7
:1087E0000DF1070201230F2121F06CFB28B19DF848
:1087F00007306C2B14BF0020102003B05DF804FB81
:10880000012380F8103170474FF400638381704773
:108810004FF4006383817047437D13B1012B04D073
:1088200070474FF48063838170474FF40063FAE729
:108830004FF40063838170474FF400638381704776
:108840002DE9F04123F00EFC1F4F204E05464FF05E
:1088500000087C68002C2ADD00231A4607EB032160
:10886000013391F8F9109C4242EA0102F6D142EA42
:108870000804E4B290467368C3F30803A3B9EFF3A6
:1088800011838BB927F024FF431BB3F5FA6F02DC89
:10889000B8F1000FDDD124B10D4B93F846254F2AD6
:1088A00009D02046BDE8F08123F0B0FBECE7444658
:1088B0004FF00008DFE7B3F84C250132A3F84C2550
:1088C0002046BDE8F08100BF0400001000ED00E08C
:1088D000501E0020074BD0F8E4105B68D0F8F02061
:1088E0005B1A9342C8BFC0F8F030012380F81C31F6
:1088F00000207047001000E04FF400638381704750
:108900004FF40063838170474FF4006383817047A5
:10891000164BD0F8E0105A6810B50446D0F8D800CD
:1089200071B1131A99420BDC94F8D030C4F8D820F6
:10893000012B10D0D4F8D4300133C4F8D43010BD9A
:10894000D4F8E430C4F8D8200344C4F8DC3094F8F8
:10895000D030012BEED104F1E801201D21F0AEF959
:10896000D4F8D4300133C4F8D43010BD001000E086
:108970002DE9F04F836893B0044613B11A689B88C1
:108980005383B64B5B68C3F30803002B40F0408170
:10899000EFF31183002B40F03B81B14B4FF0E0250A
:1089A000D3F85015A869D3F850258A42F8D1D3F8E6
:1089B0005C158842F4D8D3F858654FF47A7505FBF6
:1089C00006F1091AB1FBF6F105FB0211A34E4FF0B7
:1089D000E0204FF47A754FF0100C01277268C2F353
:1089E0000802002A40F0C780EFF31182002A40F00D
:1089F000C280D3F85085D0F818E0D3F850259045C0
:108A0000F7D1D3F85C259645F3D8D3F8589505FBF4
:108A100009F2A2EB0E02B2FBF9F205FB0822521A90
:108A2000B2F57A7FDAD3A26812B1116892880A830C
:108A30008A484FF00A0B10254FF0E0214FF47A7C62
:108A40004268C2F30802002A40F0B780EFF31182B7
:108A5000002A40F0B280D3F85025D1F81880D3F81E
:108A60005065B242F7D1D3F85C65B045F3D8D3F87E
:108A700058950CFB09FEAEEB080EBEFBF9FE0CFB95
:108A800002EE4268C2F30802002A54D1EFF31182C9
:108A9000002A50D1D3F850658F69D3F850259642FB
:108AA000F8D1D3F85C259742F4D8D3F858A50CFB3D
:108AB0000AF2D21BB2FBFAF20CFB0622A2EB0E0268
:108AC000B2F57A7FDDD3BBF1010BB9D12368ADF8E4
:108AD00004B05A6A2AB1944203D0002013B0BDE812
:108AE000F08F1B6A002BF8D180200DF103018DF867
:108AF0000300029101A80221CDE908010020002114
:108B00000122CDE90C0102A92046CDE90332CDE9CD
:108B100006338DF814308DF828200B930E938DF8C2
:108B20003C20109321F0CAF823685A6A002A68D0C2
:108B300094425AD0FEE7EFF3118985F312888F69CA
:108B40000A69D20303D50122C3F854258F69D3F8EB
:108B50005025D3F854655FFA89F989F3118806EB3B
:108B60000208D3F858650CFB06F2D21BB2FBF6F2F2
:108B70000CFB0822A2E7EFF311828CF31288D0F8E5
:108B80001880D0F810E01EF4803F03D0C3F854756D
:108B9000D0F81880D3F85095D3F854E5D2B282F3C8
:108BA0001188CE44D3F8589505FB09F2A2EB0802D0
:108BB000B2FBF9F205FB0E2231E7EFF3118E85F3DC
:108BC0001288D1F818800A69D60304D50122C3F8A7
:108BD0005425D1F81880D3F85095D3F854255FFA6E
:108BE0008EFE8EF311884A4441E71A6A002AFCD1AE
:108BF0009DF80530242B14BF00200F2013B0BDE8D2
:108C0000F08F1A6A002AF3D01A6A002AF9D1EFE726
:108C1000EFF31181102383F312884FF0E022906963
:108C2000136913F4803F0E4B03D00120C3F85405A1
:108C30009069D3F85055D3F85425C9B281F31188FF
:108C4000D3F8586551194FF47A7505FB06F2121ADC
:108C5000B2FBF6F205FB0121B8E600BF00ED00E033
:108C6000501E002010B504460E49D0F8D83094F8B4
:108C7000D020D0F8E40049680344012AC4E936133F
:108C800005D0D4F8D4300133C4F8D43010BD04F189
:108C9000E801201D21F012F8D4F8D4300133C4F8D3
:108CA000D43010BD001000E070B5866996F8DC3055
:108CB000012B8AB0054629D0023B012B31D8D6F8CA
:108CC0009C301D4C8C221A700FCCEC46ACE80F0087
:108CD000D6F89C300093D6F8A03001930FCCACE8C6
:108CE0000F0094E80300AB698CE8030003F1100067
:108CF000694620F0E3FFAA691369596A103299B1F5
:108D00008A4200D0FEE71A6A002AFCD1D6F8A030C9
:108D1000B3F90220EA81B3F904202A82B3F90630BC
:108D20006B8201200AB070BD1A6A002AEED01A6A5E
:108D3000002AF9D1EAE700BF80BA0708F0B58369D5
:108D400093F8DC20012A8BB005462ED0023A012A86
:108D500036D893F84C21D3F89C101E4C62F07F0358
:108D60000B708669D6F8A0305F1C0FCCEC46ACE8DF
:108D70000F00D6F89C30CDE900370FCCACE80F00DF
:108D800094E803008CE80300694606F1100020F027
:108D900095FFAB691A69516A03F1100099B18842D5
:108DA00000D0FEE7116A0029FCD1D3F8A0305A8820
:108DB00052BAEA819A8852BA2A82DB885BBA6B82FD
:108DC00001200BB0F0BD116A0029EED0116A002914
:108DD000F9D1EAE7A8BA07082DE9F04190F8DC30AC
:108DE000D0F8A060012B8AB0044653D016D8D0F832
:108DF0009C304FF0FF321A605A609A60DA60D0F807
:108E0000E0300522B3F57A7FC0F8F02064D8032360
:108E100080F8DC3001200AB0BDE8F081023B012B74
:108E2000F8D890F84D31D0F89C20424D63F07F0384
:108E30001370D0F8A03000F110085F1C0FCDEC4685
:108E4000ACE80F00D4F89C30CDE900370FCDACE88A
:108E50000F0095E803008CE803006946404620F0C7
:108E60002DFF23695A6A12B190452ED0FEE71A6A87
:108E7000002AFCD173885BBAA4F8D030B3885BBAFF
:108E8000A4F8D230F38801205BBAA4F8D4300AB039
:108E9000BDE8F08190F84C2190F84D319B1A5B10A1
:108EA0000133DBB206EB430236F813305BBAA0F8AD
:108EB000D03053885BBAA0F8D23093885BBAA0F860
:108EC000D43001200AB0BDE8F0811A6A002AD1D05E
:108ED0001A6A002AF9D1CDE703691A7B2AB35B69C4
:108EE0001BB390F8983003B390F84C31D0F89C2025
:108EF000C4F8A40063F07F03137090F84C1190F84D
:108F00004D31D0F8A0200C48C4F804015B1A073397
:108F10000121C4F8FC30D4F89C3084F800110A44D4
:108F2000C4E93D3284F8DC1074E7022384F8DC30B5
:108F300070E700BFA8BA07088D8000082DE9F0414E
:108F400090F81E31032B92B0044650D090F8DC000C
:108F5000D4F8A070012800F0E28016D8D4F89C3034
:108F600000221A605A609A609A81D4F8E030052293
:108F7000B3F57A7FC4F8F0202CD8012503232846C6
:108F800084F8DC3012B0BDE8F0810238012829D81D
:108F9000D4F89C30804E92221A700FCE02AD0FC5CD
:108FA0000FCE0FC596E80300D4F89C3004F11008EA
:108FB00085E80300029302A9D4F8A0300393404649
:108FC00020F07CFE23695A6A002A00F08F809045C9
:108FD00078D0FEE723691A7B002A40F0B98002238B
:108FE00084F8DC300125284612B0BDE8F08100236A
:108FF000CDE90633CDE9083368490B9300F110063B
:10900000674B02910122039302A90A2330468DF88F
:1090100014208DF82820049320F050FE23695A6A0A
:10902000002A48D0964200D0FEE71A6A002AFCD1F6
:109030005C4AB2F86235052B5FDDB2F96415D2F8EF
:109040006405B2F96655B2F9682511F5004F77D07D
:10905000C4F8D000A4F8D4200125063B002BC2D0D0
:109060007E238DF80630B0238DF807300DF106030E
:109070000293002303938DF81430069308930B9307
:109080000E9310930123049309938DF828308DF8E3
:109090003C300DF107030022079302A9002330465C
:1090A000CDE90C2320F00AFE23695A6A002A2ED04B
:1090B000964224D0FEE71A6A002AB9D01A6A002A1A
:1090C000F9D1B5E71A6A002AFCD1B7F90230A4F841
:1090D000D030B7F90430A4F8D230B7F90630A4F88C
:1090E000D4300125284612B0BDE8F0811A6A002A62
:1090F000EBD01A6A002AF9D1E7E70025AEE71A6A31
:10910000002A3FF470AF1A6A002AF8D16BE71A6A96
:10911000002A3FF468AF1A6A002AF8D163E7B7F96A
:109120000830A4F8D030B7F90A30A4F8D230B7F933
:109130000C30A4F8D4300546284612B0BDE8F081C2
:1091400015F5004F84D112F5004F81D1002584E739
:109150005B69002B3FF443AF94F89850002D3FF427
:109160003EAFD4F89C30C4F8A4408C221A70D4F8D6
:10917000A020C4F8F8200E2201230B49C4F8FC20DB
:10918000D4F89C20C4F80411C4F8F42084F8003109
:1091900084F8DC3027E700BF80BA07088801002088
:1091A000B0230020501E0020D588000870B5104E56
:1091B000D6F80835002B19DD06F58164002505E099
:1091C000D6F80835AB4204F120040FDD237F0135CA
:1091D000002BF5D0E0680028F2D0217D21F074FE4C
:1091E000D6F80835AB4204F12004EFDC012070BD55
:1091F00004000010F8B5037D85691F2B04464DD986
:109200000168A3F120024E6820209040064234D02D
:1092100010239340C860CB604B68D340DE0700F159
:109220008380EFF31183502282F312882A6C116835
:10923000C9075AD4516889B271B9D5E90960864223
:1092400050D0AF690744D76073D9301A80B25060EC
:10925000AE62002185F86410116841F00101DBB2B3
:10926000116083F3118895F86430002B44D1237D7D
:109270001F2B27D92168A3F120024C6808209040B9
:10928000044200D0C8604C68042000FA02F2224276
:1092900003D0203B00FA03F3CB60F8BD0268202026
:1092A00016689840064219460ED0102199409060E9
:1092B00091601168D940C807B3D5012101FA03F3C1
:1092C0009360AEE722681946106808238B40184265
:1092D00000D093601068042303FA01F10142DCD04E
:1092E0009160F8BD012285F86420DBB283F3118818
:1092F00095F86430002BBAD095F87C30002BB6D1AD
:1093000095F8710021F09CFD2A6E938923F00803E3
:109310001B0401211B0C938185F87C100028A6D02A
:10932000202121F0D1FDA2E7012303FA02F2CA6055
:1093300077E72E69301A80B25060A96289E700BFD2
:109340002DE9F843044690F8210144F23B33A4F898
:109350004C3108B9BDE8F8830509013D052D00F041
:109360000F0000F29B804F4F07EB4503B3F85020EE
:1093700042FA00F3DB0740F19180012303FA00F089
:10938000013810403D4470F0BBFB474E95F85C80BF
:10939000464A804406F26C5909EBC8052621AB8881
:1093A000E980B3FA83F3202BE260C3F11F02D1D02E
:1093B000174406EB82020C34C2F86C484FF00042AE
:1093C00032FA03F397F8644005D0394A116821EA6C
:1093D0000301116053610021284621F075FDAB881F
:1093E00059F83820B3FA83F3C3F11F0000F0FC01F1
:1093F00001F1804101F59C3102F13F4202F57E020C
:1094000000F003008F688000C2F387224FF00F0C3A
:1094100082400CFA00F027EA000088608868024366
:109420008A60234A234910684FF0004727FA03F364
:1094300020EA03001060506820EA03005060D1F871
:10944000000C1843C1F8000C906820EA03009060FB
:10945000D06820EA0300D060D1F8082C26441A43D3
:10946000C1F8082C96F8AC28F02A08D8002B3FF455
:1094700071AF0F490A6813430B60BDE8F883F0230E
:1094800086F8AC380C4B0022185D03216AF006FB0D
:10949000AB88B3FA83F327FA03F3E7E7034BE36000
:1094A00058E700BF80BA0708501E00201189000845
:1094B000003C014000300140B051080838B500F1CF
:1094C00010040546194820F055FBA8822846FFF7EE
:1094D00037FF01226B21204620F026FC782027F060
:1094E00019F9204618221B2120F01EFC20461822C4
:1094F0001C2120F019FC2846FEF7DAFD1A2102464D
:10950000204620F011FC95F820212046192120F05A
:109510000BFC20461022372120F006FC20460122B9
:10952000BDE83840382120F0FFBB00BF00127A00B0
:109530002DE9F04F97B000230122CDE90732CDE9A4
:109540000C328DF824300A930F9312931493B623A0
:10955000054600F110077E2190F81E018DF81730A6
:109560000DF1160302908DF816108DF838208DF845
:109570004C200693002200230DF1170606A9384659
:10958000CDE910230B9620F099FB2B695A6A002A2B
:1095900000F03C81974200D0FEE71A6A002AFCD115
:1095A00064239E4CDFF8788203959A464FF01009A9
:1095B0004FF0E0224FF47A7C4FF0010BD8F80430E2
:1095C000C3F30803002B40F09287EFF31183002BC5
:1095D00040F08D87D4F850359069D4F850158B42FF
:1095E000F8D1D4F85C158842F4D8D4F858150CFB9F
:1095F00001FEAEEB000EBEFBF1FE0CFB03EED8F855
:109600000430C3F30803002B40F03486EFF31183DA
:10961000002B40F02F86D4F850559369D4F850159C
:109620008D42F8D1D4F85C158B42F4D8D4F8581593
:109630000CFB01F0C31AB3FBF1F30CFB0533A3EBF6
:109640000E03B3F57A7FDAD35346013B9A46B5D180
:10965000039DAB6913B11A689B885383704B5B6899
:10966000C3F30803002B41F04784EFF31183002B71
:1096700041F042844FF0E02ED4F85025DEF818C0B7
:10968000D4F850359A42F7D1D4F85C359C45F3D8DC
:10969000A0EB0C03B3FBF1F34FF47A7101FB02333F
:1096A000DFF87C814FF0E0204FF47A7E4FF0100A13
:1096B0004FF0010BD8F80420C2F30802002A40F052
:1096C0009286EFF31182002A40F08D86D4F850156F
:1096D000D0F818C0D4F850259142F7D1D4F85C25C1
:1096E0009445F3D8D4F858950EFB09F2A2EB0C027E
:1096F000B2FBF9F20EFB0122D21AB2F57A7FD9D36E
:10970000AB6913B11A689B881383DFF81481039542
:109710004FF00A094FF0100A4FF0E0224FF47A7C24
:10972000BB46D8F80430C3F30803002B40F0F4869E
:10973000EFF31183002B40F0EF86D4F85035906999
:10974000D4F850158B42F8D1D4F85C158842F4D87F
:10975000D4F858E50CFB0EF1091AB1FBFEF10CFB35
:109760000311D8F80430C3F30803002B40F06385DD
:10977000EFF31183002B40F05E85D4F85005956916
:10978000D4F850359842F8D1D4F85C359D42F4D8DD
:10979000D4F858750CFB07F35B1BB3FBF7F30CFB1A
:1097A00000335B1AB3F57A7FDBD3B9F10109B8D185
:1097B0000DF11603CDE906390123039D08930D939E
:1097C0008DF838308DF84C307C2300228DF816301F
:1097D00006A900235846CDE91023CDE90A968DF855
:1097E00017908DF82490CDF83090CDF83C90CDF8BE
:1097F0004890CDF8509020F061FA2B695A6A5F4684
:10980000002A00F08F8093450CD0FEE71A6A002AE8
:109810003FF4C6AE1A6A002AF8D1C1E6501E0020F5
:1098200000ED00E01A6A002AFCD1854B5B68C3F3A7
:109830000803002B41F03C83EFF31183002B41F030
:1098400037834FF0E020D4F850358169D4F85025A3
:109850009342F8D1D4F85C259142F4D8D4F858C595
:109860004FF47A7000FB0CF2511AB1FBFCF100FBD3
:109870000311DFF8CC814FF0E0204FF47A7E4FF0F7
:10988000100A4FF0010BD8F80430C3F30803002B83
:1098900040F08885EFF31183002B40F08385D4F8E6
:1098A0005025D0F818C0D4F850359A42F7D1D4F8E2
:1098B0005C359C45F3D8D4F858950EFB09F3A3EB1F
:1098C0000C03B3FBF9F30EFB02335B1AB3F57A7F9B
:1098D000D9D30DF11603069300238DF817300793A3
:1098E0008DF824300A930C930F9312931493012351
:1098F00008930D938DF838308DF84C3059230022A1
:109900008DF8163006A900233846CDE910230B96B2
:1099100020F0D4F92B695A6A002A00F08A80974215
:1099200008D0FEE71A6A002A3FF47FAF1A6A002ABD
:10993000F8D17AE71A6A002AFCD1414B5B68C3F37D
:109940000803002B41F09082EFF31183002B41F0CC
:109950008B824FF0E020D4F850358169D4F850253F
:109960009342F8D1D4F85C259142F4D8D4F858C584
:109970004FF47A7000FB0CF2511AB1FBFCF100FBC2
:109980000311DFF8BC804FF0E0204FF47A7E4FF0F7
:10999000100A4FF0010BD8F80430C3F30803002B72
:1099A00040F06285EFF31183002B40F05D85D4F821
:1099B0005025D0F818C0D4F850359A42F7D1D4F8D1
:1099C0005C359C45F3D8D4F858950EFB09F3A3EB0E
:1099D0000C03B3FBF9F30EFB02335B1AB3F57A7F8A
:1099E000D9D3002307938DF824300A930C930F9357
:1099F00012931493012308938DF838308DF84C306E
:109A0000104B0B935E238DF817304FF4A473002294
:109A10000D9306A900233846CDE91023069620F0C1
:109A20004DF92B695A6A002A00F0928097420BD0B8
:109A3000FEE71A6A002A80D01A6A002AF9D17CE768
:109A400000ED00E0F4BA07081A6A002AFCD1DFF83A
:109A50003C8303954FF00A094FF0100A4FF0E022C3
:109A60004FF47A7CBB46D8F80430C3F30803002BCC
:109A700040F01B85EFF31183002B40F01685D4F8DE
:109A800050359069D4F850158B42F8D1D4F85C1554
:109A90008842F4D8D4F858E50CFB0EF1091AB1FB52
:109AA000FEF10CFB0311D8F80430C3F30803002BBC
:109AB00040F0A383EFF31183002B40F09E83D4F892
:109AC00050059569D4F850359842F8D1D4F85C35F2
:109AD0009D42F4D8D4F858750CFB07F35B1BB3FB1D
:109AE000F7F30CFB00335B1AB3F57A7FDBD3B9F1E4
:109AF0000109B8D10DF11603CDE906390123039D03
:109B00008DF8173008930D938DF838308DF84C3060
:109B1000592300228DF8163006A900235846CDE9B6
:109B20001023CDE90A968DF82490CDF83090CDF829
:109B30003C90CDF84890CDF8509020F0BFF82B69BC
:109B40005A6A5F46002A00F09080934508D0FEE7ED
:109B50001A6A002A3FF47BAF1A6A002AF8D176E726
:109B60001A6A002AFCD1894B5B68C3F30803002BF7
:109B700041F05381EFF31183002B41F04E814FF000
:109B8000E020D4F850358169D4F850259342F8D1BB
:109B9000D4F85C259142F4D8D4F858C54FF47A70C3
:109BA00000FB0CF2511AB1FBFCF100FB0311DFF8D2
:109BB000DC814FF0E0204FF47A7E4FF0100A4FF036
:109BC000010BD8F80430C3F30803002B40F08A835C
:109BD000EFF31183002B40F08583D4F85025D0F8A3
:109BE00018C0D4F850359A42F7D1D4F85C359C456A
:109BF000F3D8D4F858950EFB09F3A3EB0C03B3FB91
:109C0000F9F30EFB02335B1AB3F57A7FD9D3029BCB
:109C1000032B01F0B9810DF116030693002307937E
:109C20008DF824300A930C930F931293149301230D
:109C300008930D938DF838308DF84C3040238DF813
:109C400016309B2300228DF8173006A900233846D2
:109C5000CDE910230B9620F031F82B695A6A002ABF
:109C600000F08C80974208D0FEE71A6A002A3FF481
:109C70007AAF1A6A002AF8D175E71A6A002AFCD16D
:109C8000424B5B68C3F30803002B41F05981EFF3AB
:109C90001183002B41F054814FF0E020D4F850356F
:109CA0008169D4F850259342F8D1D4F85C259142CB
:109CB000F4D8D4F858C54FF47A7000FB0CF2511A5E
:109CC000B1FBFCF100FB0311DFF8C0804FF0E02096
:109CD0004FF47A7E4FF0100A4FF0010BD8F80430A1
:109CE000C3F30803002B40F03D83EFF31183002BF7
:109CF00040F03883D4F85025D0F818C0D4F8503547
:109D00009A42F7D1D4F85C359C45F3D8D4F85895ED
:109D10000EFB09F3A3EB0C03B3FBF9F30EFB0233C9
:109D20005B1AB3F57A7FD9D30DF11603069300239E
:109D300007938DF824300A930C930F931293149386
:109D4000012308930D938DF838308DF84C30412362
:109D50008DF81630032300228DF8173006A9002352
:109D60003846CDE910230B961FF0A8FF2B695A6ADD
:109D7000002A00F09C8097420AD0FEE71A6A002A67
:109D80003FF47EAF1A6A002AF8D179E700ED00E0CF
:109D90001A6A002AFCD18E4B5B68C3F30803002BC0
:109DA00041F09B81EFF31183002B41F096814FF03E
:109DB000E020D4F850358169D4F850259342F8D189
:109DC000D4F85C259142F4D8D4F858C54FF47A7091
:109DD00000FB0CF2511AB1FBFCF100FB0311DFF8A0
:109DE000F0814FF0E0204FF47A7E4FF0100A4FF0F0
:109DF000010BD8F80430C3F30803002B40F0928223
:109E0000EFF31183002B40F08D82D4F85025D0F869
:109E100018C0D4F850359A42F7D1D4F85C359C4537
:109E2000F3D8D4F858950EFB09F3A3EB0C03B3FB5E
:109E3000F9F30EFB02335B1AB3F57A7FD9D394F8AA
:109E4000B538013BDBB2022B00F28883614A134430
:109E500093F8BC311B0163F03203DBB28DF817308D
:109E60000DF116030693002307938DF824300A930F
:109E70000C930F9312931493012308930D938DF871
:109E800038308DF84C30422300228DF8163006A968
:109E900000233846CDE910230B961FF00FFF2B69E6
:109EA0005A6A002A00F08C80974208D0FEE71A6AAE
:109EB000002A3FF470AF1A6A002AF8D16BE71A6AD9
:109EC000002AFCD1424B5B68C3F30803002B40F02F
:109ED0008087EFF31183002B40F07B874FF0E02069
:109EE000D4F850358169D4F850259342F8D1D4F88C
:109EF0005C259142F4D8D4F858C54FF47A7000FB31
:109F00000CF2511AB1FBFCF100FB0311DFF8C08029
:109F10004FF0E0204FF47A7E4FF0100A4FF0010B23
:109F2000D8F80430C3F30803002B40F07D82EFF330
:109F30001183002B40F07882D4F85025D0F818C057
:109F4000D4F850359A42F7D1D4F85C359C45F3D813
:109F5000D4F858950EFB09F3A3EB0C03B3FBF9F30C
:109F60000EFB02335B1AB3F57A7FD9D30DF11603DA
:109F70000693002307938DF824300A930C930F93D4
:109F800012931493012308930D938DF838308DF8B4
:109F90004C3043238DF81630082300228DF81730FB
:109FA00006A900233846CDE910230B961FF086FE44
:109FB0002B695A6A002A00F0968097420CD0FEE77F
:109FC0001A6A002A3FF47EAF1A6A002AF8D179E7AC
:109FD00000ED00E080BA07081A6A002AFCD1C04BE5
:109FE0005B68C3F30803002B40F03186EFF3118365
:109FF000002B40F02C864FF0E020D4F850258169EA
:10A00000D4F850359342F8D1D4F85C259142F4D875
:10A01000D4F858C54FF47A7000FB0CF2511AB1FB1A
:10A02000FCF100FB0311DFF8B8824FF0E0204FF4A1
:10A030007A7E4FF0100A4FF0010BD8F80430C3F3CA
:10A040000803002B40F02B81EFF31183002B40F02D
:10A050002681D4F85035D0F818C0D4F850259A424B
:10A06000F7D1D4F85C356345F3D3D4F858950EFB9B
:10A0700009F3A3EB0C03B3FBF9F30EFB02335B1AFA
:10A08000B3F57A7FD9D3029B0B96032B0DF1160300
:10A0900006934FF0000307938DF824300A930C9336
:10A0A0000F93129314934FF0010308930D938DF8BF
:10A0B00038308DF84C304FF058038DF8163000F0E2
:10A0C0003D85042300228DF8173006A90023384669
:10A0D000CDE910231FF0F2FD2B695A6A5AB197425D
:10A0E00000F02C84FEE71A6A002A3FF478AF1A6A5F
:10A0F000002AF8D173E71A6A002AFCD1784B5B6812
:10A10000C3F30803002B40F00084EFF31183002B0E
:10A1100040F0FB834FF0E020D4F850258169D4F85B
:10A1200050359342F8D1D4F85C259142F4D8D4F854
:10A1300058C5DFF8ACE14FF47A7000FB0CF2521A0C
:10A140004FF0100AB2FBFCF24FF0010B00FB0322B0
:10A150004FF0E02C4FF47A70DEF80430C3F30803BC
:10A16000002B40F05484EFF31183002B40F04F8418
:10A17000D4F85035DCF81880D4F850159942F7D14E
:10A18000D4F85C359845F3D8D4F8589500FB09F31A
:10A19000A3EB0803B3FBF9F300FB01339B1AB3F500
:10A1A0007A7FD9D30DF116030693002307938DF818
:10A1B00024300A930C930F93129314930123089362
:10A1C0000D938DF838308DF84C3053238DF81630C0
:10A1D0000A2300228DF8173006A900233846CDE95E
:10A1E00010230B961FF06AFD2B695A6A002A00F0B3
:10A1F0003882974200F0B481FEE7EFF311858AF3CD
:10A20000128897691369D80303D50123C4F854351C
:10A210009769D4F85035D4F85405EDB285F3118818
:10A22000D4F8585518440CFB05F3DB1BB3FBF5F3CE
:10A230000CFB003357E4EFF311858AF3128897691A
:10A240001369D80303D50123C4F854359769D4F8AA
:10A250005035D4F85405EDB285F31188D4F858552B
:10A2600018440CFB05F3DB1BB3FBF5F30CFB0033CD
:10A27000FFF797BAEFF3118189F312889369106998
:10A28000C50344BFC4F854B59369D4F85005D4F855
:10A290005455C9B281F311880544FFF7C7B9EFF3EC
:10A2A00011838AF31288D0F818900269D20303D57B
:10A2B000C4F854B5D0F81890D4F85025D4F854C543
:10A2C000DBB283F311886244D4F858C50EFB0CF35B
:10A2D000A3EB0903B3FBFCF30EFB0233CFE600BF95
:10A2E00000ED00E0EFF311838AF31288D0F81890A4
:10A2F0000269D20303D5C4F854B5D0F81890D4F845
:10A300005025D4F854C5DBB283F311886244D4F8E5
:10A3100058C50EFB0CF3A3EB0903B3FBFCF30EFBD8
:10A32000023370E4EFF311838AF31288D0F81890A7
:10A330000269D20303D5C4F854B5D0F81890D4F804
:10A340005025D4F854C5DBB283F311886244D4F8A5
:10A3500058C50EFB0CF3A3EB0903B3FBFCF30EFB98
:10A36000023368E5EFF311838AF31288D0F818906E
:10A370000269D20303D5C4F854B5D0F81890D4F8C4
:10A380005025D4F854C5DBB283F311886244D4F865
:10A3900058C50EFB0CF3A3EB0903B3FBFCF30EFB58
:10A3A0000233BDE4EFF311838AF31288D0F81890DA
:10A3B0000269D20303D5C4F854B5D0F81890D4F884
:10A3C0005025D4F854C5DBB283F311886244D4F825
:10A3D00058C50EFB0CF3A3EB0903B3FBFCF30EFB18
:10A3E0000233FFF772BAEFF311828AF31288D0F8C2
:10A3F00018900169C90303D5C4F854B5D0F8189072
:10A40000D4F85015D4F854C5D2B282F311886144FF
:10A41000D4F858C50EFB0CF2A2EB0902B2FBFCF219
:10A420000EFB0122FFF768B9EFF311838AF312885C
:10A43000D0F818900269D20303D5C4F854B5D0F807
:10A440001890D4F85025D4F854C5DBB283F31188A2
:10A450006244D4F858C50EFB0CF3A3EB0903B3FB1D
:10A46000FCF30EFB02337DE5EFF311838AF31288D0
:10A47000D0F818900269D20303D5C4F854B5D0F8C7
:10A480001890D4F85025D4F854C5DBB283F3118862
:10A490006244D4F858C50EFB0CF3A3EB0903B3FBDD
:10A4A000FCF30EFB0233FFF798BAEFF311808AF347
:10A4B0001288D2F818E01369DD0304D50123C4F82B
:10A4C0005435D2F818E0D4F85035D4F85415C0B249
:10A4D00080F31188D4F858050B440CFB00F1A1EB74
:10A4E0000E01B1FBF0F10CFB0311FFF7DCBAEFF347
:10A4F000118189F3128890691369DB0344BFC4F8A2
:10A5000054B59069D4F85035D4F854E5C9B281F304
:10A5100011887344FFF769B8EFF311808AF312884A
:10A52000D2F818E01369DD0304D50123C4F85435CB
:10A53000D2F818E0D4F85035D4F85415C0B280F3EE
:10A540001188D4F858050B440CFB00F1A1EB0E0167
:10A55000B1FBF0F10CFB0311FFF703B9CD237DE450
:10A560001A6A002AFCD1874B5B68C3F30803002BEF
:10A5700040F06F82EFF31183002B40F06A824FF0BE
:10A58000E020D4F850258169D4F850359342F8D1B1
:10A59000D4F85C258A42F4D3D4F858C54FF47A70C5
:10A5A00000FB0CF2511AB1FBFCF100FB0311DFF8C8
:10A5B000D4814FF0E0204FF47A7E4FF0100A4FF034
:10A5C000010BD8F80430C3F30803002B40F0FF81DF
:10A5D000EFF31183002B40F0FA81D4F85025D0F826
:10A5E00018C0D4F850359A42F7D1D4F85C359C4560
:10A5F000F3D8D4F858950EFB09F3A3EB0C03B3FB87
:10A60000F9F30EFB02335B1AB3F57A7FD9D30DF160
:10A6100016030693002307938DF824300A930C93B6
:10A620000F9312931493012308930D938DF83830F0
:10A630008DF84C307C238DF81630022300228DF8E3
:10A64000173006A900233846CDE910230B961FF0DA
:10A6500035FB2B695A6A002A00F08C80974208D09B
:10A66000FEE71A6A002A3FF47EAF1A6A002AF8D180
:10A6700079E71A6A002AFCD1424B5B68C3F30803EE
:10A68000002B40F03882EFF31183002B40F033822F
:10A690004FF0E020D4F850258169D4F8503593422A
:10A6A000F8D1D4F85C258A42F4D3D4F858C54FF4D5
:10A6B0007A7000FB0CF2511AB1FBFCF100FB0311A4
:10A6C000DFF8C0804FF0E0204FF47A7E4FF0100AA0
:10A6D0004FF0010BD8F80430C3F30803002B40F00F
:10A6E0005681EFF31183002B40F05181D4F850359F
:10A6F000D0F818C0D4F850259A42F7D1D4F85C3578
:10A700006345F3D3D4F858950EFB09F3A3EB0C0380
:10A71000B3FBF9F30EFB02335B1AB3F57A7FD9D39F
:10A720000DF116030693002307938DF824300A9346
:10A730000C930F9312931493012308930D938DF8A8
:10A7400038308DF84C307D238DF816300E230022E2
:10A750008DF8173006A900233846CDE910230B9653
:10A760001FF0ACFA2B695A6A002A00F0C6809742A3
:10A770000AD0FEE71A6A002A3FF47EAF1A6A002A5E
:10A78000F8D179E700ED00E01A6A002AFCD1C24B4B
:10A790005B68C3F30803002B40F08A81EFF3118359
:10A7A000002B40F085814FF0E020D4F850358169CE
:10A7B000D4F850259342F8D1D4F85C259142F4D8CE
:10A7C000D4F858C54FF47A7000FB0CF2511AB1FB63
:10A7D000FCF100FB0311DFF8C0824FF0E0204FF4E2
:10A7E0007A7E4FF0100A4FF0010BD8F80430C3F313
:10A7F0000803002B40F0AB80EFF31183002B40F0F7
:10A80000A680D4F85035D0F818C0D4F850259A4214
:10A81000F7D1D4F85C359C45F3D8D4F858950EFBA5
:10A8200009F3A3EB0C03B3FBF9F30EFB02335B1A42
:10A83000B3F57A7FD9D3029B032B00F02C8295F8D5
:10A840002131002B35D01E09013E052E03F00F03E8
:10A8500001F20280914F07EB4602B2F8500040FA35
:10A8600003F2D20740F1F887012202FA03F3013B19
:10A8700018403E446FF044F996F85C30884E894A9F
:10A88000184406EBC00629462623F380002341F82E
:10A890000C2F30460093F02220F034FDB2884FF0A8
:10A8A0000043B2FA82F2D34003D07F490A681343CF
:10A8B0000B6022687D4BB3EB920F80F0C787B3EB40
:10A8C000D20F80F0C087B3EB121F80F0D187B3EBBB
:10A8D000521F80F0D087B3EB921F80F0CF87B3EB8D
:10A8E000D21F80F0CE87B3EB122F34BF4FF48073AA
:10A8F0008023AB8217B0BDE8F08F1A6A002A3FF4BC
:10A9000046AF1A6A002AF8D141E7EFF3118210230B
:10A9100083F312884FF0E02399691869C00303D5C7
:10A920000121C4F854159969D4F85005D4F8543568
:10A93000D2B282F311880344FFF7F9BB1A6A002AE6
:10A940003FF4DCAB1A6A002AF8D1FFF7D7BBEFF36C
:10A9500011838AF31288D0F818900269D20303D5C4
:10A96000C4F854B5D0F81890D4F85025D4F854C58C
:10A97000DBB283F311886244D4F858C50EFB0CF3A4
:10A98000A3EB0903B3FBFCF30EFB02334FE7EFF33A
:10A9900011838AF31288D0F818900269D20303D584
:10A9A000C4F854B5D0F81890D4F85025D4F854C54C
:10A9B000DBB283F311886244D4F858C50EFB0CF364
:10A9C000A3EB0903B3FBFCF30EFB0233A4E6EFF3A6
:10A9D00011838AF31288D0F818900269D20303D544
:10A9E000C4F854B5D0F81890D4F85025D4F854C50C
:10A9F000DBB283F311886244D4F858C50EFB0CF324
:10AA0000A3EB0903B3FBFCF30EFB0233FBE5EFF30F
:10AA100011838AF31288DCF81890DCF81010C9034F
:10AA200003D5C4F854B5DCF81890D4F85015D4F810
:10AA30005485DBB283F311884144D4F8588500FB78
:10AA400008F3A3EB0903B3FBF8F300FB0133FFF7B3
:10AA5000A5BBEFF31182102383F312884FF0E0239C
:10AA600098691969C90303D50121C4F85415986977
:10AA7000D4F85015D4F85435D2B282F31188D4F8F2
:10AA800058C54FF47A720B4402FB0CF1091AB1FB62
:10AA9000FCF102FB03118AE500ED00E080BA070833
:10AAA000BC230020658C0008003C01408096980083
:10AAB000EFF31182102383F312884FF0E02398699B
:10AAC0001969C90303D50121C4F854159869D4F84C
:10AAD0005015D4F85435D2B282F31188D4F858C541
:10AAE0004FF47A720B4402FB0CF1091AB1FBFCF132
:10AAF00002FB03116FE6EFF31182102383F3128838
:10AB00004FF0E02398691969C90303D50121C4F8FE
:10AB100054159869D4F85015D4F85435D2B282F34C
:10AB20001188D4F858C54FF47A720B4402FB0CF12B
:10AB3000091AB1FBFCF102FB0311C1E5022300225B
:10AB40008DF8173006A900233846CDE910231FF0F1
:10AB5000B5F82B695A6A002A72D0974200D0FEE7F6
:10AB60001A6A002AFCD1BF4B5B68C3F30803002BB1
:10AB700040F07C83EFF31183002B40F077834FF09C
:10AB8000E020D4F850358169D4F850259342F8D1AB
:10AB9000D4F85C258A42F4D3D4F858C5DFF8C482CF
:10ABA0004FF47A7000FB0CF2521AB2FBFCF200FB7D
:10ABB0000322D8F80430C3F308034FF0E0204FF429
:10ABC0007A7C4FF0100A4FF0010B1BBBEFF311839F
:10ABD00003BBD4F85015D0F81890D4F850359942EA
:10ABE000F7D1D4F85C354B45F3D3D4F858E50CFBDA
:10ABF0000EF3A3EB0903B3FBFEF30CFB01339B1A2B
:10AC0000B3F57A7FBFF4CEAAD8F80430C3F30803B3
:10AC1000002BDBD0EFF311838AF31288D0F8189061
:10AC20000169C90303D5C4F854B5D0F81890D4F815
:10AC30005015D4F854E5DBB283F311887144D4E79E
:10AC40001A6A002A8FD01A6A002AF9D18BE7EFF32B
:10AC50001182102383F312884FF0E0239869196959
:10AC6000C90303D50121C4F854159869D4F85015C7
:10AC7000D4F85435D2B282F31188D4F858C54FF4C1
:10AC80007A720B4402FB0CF1091AB1FBFCF102FBD6
:10AC90000311FFF7C8B90DF11603069300230793BC
:10ACA0008DF824300A930C930F931293149301237D
:10ACB00008930D938DF838308DF84C307E238DF845
:10ACC0001630B02300228DF8173006A9002338462D
:10ACD000CDE910230B961EF0F1FF2B695A6A1AB1C9
:10ACE000974200F0A785FEE71A6A002AFCD15D4B67
:10ACF0005B68C3F30803002B40F06F85EFF311830B
:10AD0000002B40F06A854FF0E020D4F8503582697E
:10AD1000D4F850158B42F8D1D4F85C158A42F4D897
:10AD2000D4F858054FF47A7101FB00F6B61AB6FB59
:10AD3000F0F601FB0366DFF82C81D8F80430C3F38A
:10AD400008034FF0E0214FF47A774FF0100E4FF0E8
:10AD5000010C0BBBEFF31183F3B9D4F850258869CC
:10AD6000D4F850359342F8D1D4F85C259042F4D809
:10AD7000D4F8589507FB09F2121AB2FBF9F207FB57
:10AD800003239B1BB3F57A7FBFF459ADD8F8043089
:10AD9000C3F30803002BDDD0EFF311838EF3128889
:10ADA00088690A69D20302D5C4F854C58869D4F801
:10ADB0005095D4F85425DBB283F311884A44D4F873
:10ADC000589507FB09F31B1AB3FBF9F307FB023392
:10ADD000D7E7EFF31182102383F312884FF0E023BB
:10ADE00098691969C90303D50121C4F854159869F4
:10ADF000D4F85015D4F85435D2B282F31188D4F86F
:10AE000058C54FF47A720B4402FB0CF1091AB1FBDE
:10AE1000FCF102FB0311FFF779B8EFF31182102365
:10AE200083F312884FF0E02398691969C90303D5A9
:10AE30000121C4F854159869D4F85015D4F8543544
:10AE4000D2B282F31188D4F858C54FF47A720B4409
:10AE500002FB0CF1091AB1FBFCF102FB0311FEF736
:10AE6000A6BE00BF00ED00E0EFF31182102383F3D4
:10AE700012884FF0E02398691969C90303D50121AD
:10AE8000C4F854159869D4F85015D4F85435D2B292
:10AE900082F31188D4F858C54FF47A720B4402FB40
:10AEA0000CF1091AB1FBFCF102FB0311FEF769BDBD
:10AEB000EFF31182102383F312884FF0E023986997
:10AEC0001969C90303D50121C4F854159869D4F848
:10AED0005015D4F85435D2B282F31188D4F858C53D
:10AEE0004FF47A720B4402FB0CF1091AB1FBFCF12E
:10AEF00002FB0311FEF7BDBCEFF31182102383F3B5
:10AF000012884FF0E02399691869C00303D5012125
:10AF1000C4F854159969D4F85005D4F85435D2B210
:10AF200082F31188D4F858C51A184FF47A7000FBD0
:10AF30000CF35B1AB3FBFCF300FB0233FEF7B0BB70
:10AF4000EFF31182102383F312884FF0E023986906
:10AF50001969C90303D50121C4F854159869D4F8B7
:10AF60005015D4F85435D2B282F31188D4F858C5AC
:10AF70004FF47A720B4402FB0CF1091AB1FBFCF19D
:10AF800002FB0311FEF7A0BE0DF11603069300238A
:10AF90008DF8173007938DF824300A930C930F9394
:10AFA00012931493012308930D938DF838308DF884
:10AFB0004C30482300228DF8163006A9002338466D
:10AFC000CDE910230B961EF079FE2B695A6A1AB14F
:10AFD000974200F02684FEE71A6A002AFCD1AF4BA4
:10AFE0005B68C3F30803002B40F0D383EFF31183B6
:10AFF000002B40F0CE834FF0E020D4F8503582692A
:10B00000D4F850158B42F8D1D4F85C158A42F4D8A4
:10B01000D4F858054FF47A7101FB00FCACEB020C3C
:10B02000BCFBF0FC01FB03CCDFF870824FF0E022A8
:10B030004FF47A7E4FF0100A4FF0010BD8F804302D
:10B04000C3F30803002B40F0F480EFF31183002BCF
:10B0500040F0EF80D4F850359169D4F85005834220
:10B06000F8D1D4F85C058142F4D8D4F858950EFB99
:10B0700009F0411AB1FBF9F10EFB0313A3EB0C032A
:10B08000B3F57A7FDAD30DF1160306930023079305
:10B090008DF824300A930C930F9312931493012389
:10B0A00008930D938DF838308DF84C3049238DF886
:10B0B0001630802300228DF8173006A90023384669
:10B0C000CDE910230B961EF0F9FD2B695A6A002A70
:10B0D00000F0A780974224D0FEE7EFF311821023FF
:10B0E00083F312884FF0E02398691969C90303D5E7
:10B0F0000121C4F854159869D4F85015D4F8543582
:10B10000D2B282F31188D4F858C54FF47A720B4446
:10B1100002FB0CF1091AB1FBFCF102FB0311FEF773
:10B120005EBE1A6A002AFCD15C4B5B68C3F308035D
:10B13000002B40F00A83EFF31183002B40F00583CE
:10B140004FF0E020D4F850358269D4F850158B4286
:10B15000F8D1D4F85C158A42F4D8D4F858054FF4E5
:10B160007A7101FB00FCACEB020CBCFBF0FC01FBB8
:10B1700003CCDFF828814FF0E0224FF47A7E4FF0C5
:10B18000100A4FF0010BD8F80430C3F30803002B6A
:10B1900040F00F81EFF31183002B40F00A81D4F8C7
:10B1A00050359169D4F850058342F8D1D4F85C0544
:10B1B0008142F4D8D4F858950EFB09F0411AB1FB3E
:10B1C000F9F10EFB0313A3EB0C03B3F57A7FDAD38B
:10B1D0000DF11603069300238DF8173007938DF8B1
:10B1E00024300A930C930F93129314930123089322
:10B1F0000D938DF838308DF84C30452300228DF8B2
:10B20000163006A900233846CDE910230B961EF010
:10B2100055FD2B695A6A002A00F0C38097423FD03F
:10B22000FEE71A6A002A3FF47FAF1A6A002AF8D1B3
:10B230007AE7EFF311838AF3128890691169C903E1
:10B2400002D5C4F854B59069D4F85015D4F8549583
:10B25000DBB283F311884944D4F858950EFB09F307
:10B260001B1AB3FBF9F30EFB013307E7EFF311826F
:10B27000102383F312884FF0E02399691869C00303
:10B2800003D50121C4F854159969D4F85005D4F8B0
:10B290005435D2B282F3118803447DE400ED00E01E
:10B2A0001A6A002AFCD1A44B5B68C3F30803002B85
:10B2B00040F02782EFF31183002B40F022824FF001
:10B2C000E020D4F850358269D4F850158B42F8D17B
:10B2D000D4F85C158A42F4D8D4F858054FF47A7142
:10B2E00001FB00FCACEB020CBCFBF0FC01FB03CC53
:10B2F000DFF844824FF0E0224FF47A7E4FF0100ADC
:10B300004FF0010BD8F80430C3F30803002B40F0D2
:10B31000F580EFF31183002B40F0F080D4F8503526
:10B320009169D4F850058342F8D1D4F85C05814284
:10B33000F4D8D4F858950EFB09F0411AB1FBF9F195
:10B340000EFB0313A3EB0C03B3F57A7FDAD30DF1F5
:10B3500016030693002307938DF824300A930C9369
:10B360000F9312931493012308930D938DF83830A3
:10B370008DF84C3046238DF81630062300228DF8C8
:10B38000173006A900233846CDE910230B961EF08E
:10B3900095FC2B695A6A002A00F0A880974225D0B4
:10B3A000FEE71A6A002A3FF47EAF1A6A002AF8D133
:10B3B00079E7EFF311838AF3128890691169C90361
:10B3C00002D5C4F854B59069D4F85015D4F8549502
:10B3D000DBB283F311884944D4F858950EFB09F386
:10B3E0001B1AB3FBF9F30EFB0133ECE61A6A002AD1
:10B3F000FCD1514B5B68C3F30803002B40F05D8127
:10B40000EFF31183002B40F058814FF0E020D4F887
:10B4100050358269D4F850158B42F8D1D4F85C15B8
:10B420008A42F4D8D4F858054FF47A7101FB00FC35
:10B43000ACEB020CBCFBF0FC01FB03CCDFF8F880AA
:10B440004FF0E0224FF47A7E4FF0100A4FF0010BDC
:10B45000D8F80430C3F30803002B40F0ED80EFF37D
:10B460001183002B40F0E880D4F850359169D4F86E
:10B4700050058342F8D1D4F85C058142F4D8D4F861
:10B4800058950EFB09F0411AB1FBF9F10EFB0313BD
:10B49000A3EB0C03B3F57A7FDAD30DF11603069311
:10B4A00000238DF8173007938DF824300A930C93FE
:10B4B0000F9312931493012308930D938DF8383052
:10B4C0008DF84C30472300228DF8163006A9002352
:10B4D0003846CDE910230B961EF0F0FB2B695A6A13
:10B4E000002A00F0A280974228D0FEE71A6A002ABC
:10B4F0003FF47FAF1A6A002AF8D17AE7EFF311839D
:10B500008AF3128890691169C90302D5C4F854B549
:10B510009069D4F85015D4F85495DBB283F31188B0
:10B520004944D4F858950EFB09F31B1AB3FBF9F301
:10B530000EFB013306E700BF00ED00E01A6A002AA7
:10B54000FCD1C44B5B68C3F30803002B40F091802F
:10B55000EFF31183002B40F08C804FF0E020D4F803
:10B5600050358269D4F850158B42F8D1D4F85C1567
:10B570008A42F4D8D4F858054FF47A7101FB00FCE4
:10B58000ACEB020CBCFBF0FC01FB03CCDFF8C4828B
:10B59000D8F80430C3F308034FF0E0224FF47A7E6A
:10B5A0004FF0100A4FF0010B13BBEFF31183FBB9FF
:10B5B000D4F850359169D4F850058342F8D1D4F8C5
:10B5C0005C058142F4D8D4F858950EFB09F0411A75
:10B5D000B1FBF9F10EFB0313A3EB0C03B3F57A7F78
:10B5E000BEF419ABD8F80430C3F30803002BDCD049
:10B5F000EFF311838AF3128890691169C90302D5A8
:10B60000C4F854B59069D4F85015D4F85495DBB209
:10B6100083F311884944D4F858950EFB09F31B1A9B
:10B62000B3FBF9F30EFB0133D6E71A6A002A88D080
:10B630001A6A002AF9D184E7EFF311838AF312889A
:10B6400090691169C90302D5C4F854B59069D4F85A
:10B650005015D4F85495DBB283F311884944D4F8DB
:10B6600058950EFB09F31B1AB3FBF9F30EFB0133DC
:10B670000EE7EFF31182102383F312884FF0E023DB
:10B6800099691869C00303D50121C4F85415996953
:10B69000D4F85005D4F85435D2B282F3118803445B
:10B6A000D4F858054FF47A7202FB00FCACEB010CA5
:10B6B000BCFBF0FC02FB03CC68E7EFF31182102324
:10B6C00083F312884FF0E02399691869C00303D50A
:10B6D0000121C4F854159969D4F85005D4F85435AB
:10B6E000D2B282F311880344D4F858054FF47A7229
:10B6F00002FB00FCACEB010CBCFBF0FC02FB03CC3E
:10B700009CE6EFF31182102383F312884FF0E023BD
:10B7100099691869C00303D50121C4F854159969C2
:10B72000D4F85005D4F85435D2B282F311880344CA
:10B73000D4F858054FF47A7202FB00FCACEB010C14
:10B74000BCFBF0FC02FB03CCD2E5EFF3118210232B
:10B7500083F312884FF0E02399691869C00303D579
:10B760000121C4F854159969D4F85005D4F854351A
:10B77000D2B282F311880344D4F858054FF47A7298
:10B7800002FB00FCACEB010CBCFBF0FC02FB03CCAD
:10B79000EFE4EFF31182102383F312884FF0E023DC
:10B7A00099691869C00303D50121C4F85415996932
:10B7B000D4F85005D4F85435D2B282F3118803443A
:10B7C000D4F858054FF47A7202FB00FCACEB010C84
:10B7D000BCFBF0FC02FB03CC26E4EFF31182102348
:10B7E00083F312884FF0E02399691869C00303D5E9
:10B7F0000121C4F854159969D4F85065D4F854352A
:10B80000D2B282F31188D4F858054FF47A723344D7
:10B8100002FB00F6761AB6FBF0F602FB0366FFF7B2
:10B820008ABA1A6A002A3FF4DAAB1A6A002AF8D1F7
:10B83000FFF7D5BB1A6A002A3FF459AA1A6A002AF0
:10B84000F8D1FFF754BA0423FFF753B80223FFF7E8
:10B8500050B800BF00ED00E029460B4B41F80C3F0B
:10B86000002300931846F0221FF04CFDFFF721B88B
:10B870000823FFF73EB81023FFF73BB82023FFF75C
:10B8800038B84023FFF735B8658C0008BA4B1B78F1
:10B890000BB9012070472DE9F04FB84DB849D5F8E4
:10B8A0005025B84BA1FB02125209A3FB023A4FEA02
:10B8B000DA0A0AEB8A0AA2EB4A0A85B0AE4A5FFAB4
:10B8C0008AF3039302F2EC7302F20C570193002304
:10B8D00007EB8A0A02F581699846A74BD3F8083529
:10B8E000434540F31481D9F81830D9F80460D3E9FE
:10B8F0003A34029320F0B6FB029B95F846C50290BD
:10B900004FEA860E95F8D8080EF1085E04F18061C2
:10B910000EEB431E3939BCF14F0F0EEB81110EEBCC
:10B92000801301D1A5F84E05994240F266811A684C
:10B93000002A00F05A811A6C002A00F06C81D3F8BA
:10B940008020002A00F06981D3F8C02003F58073BD
:10B95000002AE9D1A3EB0E0E99424FEAAE1E40F247
:10B960004C81A4EB0E0145294FF0000428BF45216E
:10B9700003EB81119B46204626460DE01A6C002AF7
:10B9800040F0CD80D3F88020002A40F0F380D3F837
:10B99000C02003F580732AB9994206D91A68002A93
:10B9A000ECD04033994200F2BE80112E344640F272
:10B9B0002881D6F1150200F124817349029ECB68DB
:10B9C0009E45D5F8DC3838BFC1F80CE0F11A0029E3
:10B9D00017DB03F5F42303F590739E4288BF029BA7
:10B9E000694988BF0533C5F8DC38674BDB68052B30
:10B9F00086BF053BDBB2002385F8D8384FF0FF3314
:10BA0000CB6042B100FA02F2C4F11404012000FA42
:10BA100004F444EA02005D4BC0F3C43203EB82023B
:10BA2000D2F8C01100F01F0203EB8202D2F8C0214D
:10BA300042EA0131C0F3441203EB8202C0F38420D6
:10BA400003EB8000D2F8C03141EA0311D0F8C031D5
:10BA500041EA032181EA112383EA131303F00F0360
:10BA60000F2B40F0B080B1F5803F80F0AC80BCF18E
:10BA70004F0F4FEA111104D1B5F848350133A5F83D
:10BA800048353D4AD2F8F437B1F5606F03F1010350
:10BA9000C2F8F43700F0D380019B998197F85830B1
:10BAA0000398834210D0DAF808203B689B1A3B6069
:10BAB000DAF830207B689B1A7B600023CAF80830D4
:10BAC000CAF8303087F858003B6801333B60DAF839
:10BAD00008300133CAF808304FF6FF73994207D196
:10BAE0007B6801337B60DAF830300133CAF83030DC
:10BAF000019B08F101081433B8F1080F07F15C0746
:10BB00000AF15C0A019309F120097FF4E6AE1A4AB2
:10BB10000123012082F8F23805B0BDE8F08F8033B0
:10BB200099427FF642AF5A469A1A9211541C184A0B
:10BB300082FB04B2A2EBE472012AB8BF012290405A
:10BB400001241644013A04FA02F210431C4622680A
:10BB500002B3226C002A62D0D4F88020002A60D080
:10BB6000D4F8C02004F58074AAB1A142EFD89B4656
:10BB7000234611E7C03315E704000010501E0020D3
:10BB80001F85EB51CDCCCCCC8801002080BA0708B2
:10BB9000565555554034A142E9D9E31A9B115A1C18
:10BBA0002F4B83FB02B3A3EBE273012BB8BF01233E
:10BBB00098401E440122013B02FA03F31843234636
:10BBC0009B462346E8E6BCF14F0F2CD0254AD2F81D
:10BBD000F4370133C2F8F437224AD2F8F037013390
:10BBE000C2F8F0374FF6FF7158E74033A3EB0E0E63
:10BBF00099424FEAAE1E3FF6B4AE10B1013885F857
:10BC0000D808BCF14F0F7FF473AFB5F84A35013354
:10BC1000A5F84A356CE780339CE6C0339AE6803459
:10BC2000B9E7C034B7E7B5F848350E4A0133A5F88F
:10BC30004835D2F8F4370133C2F8F437CCE795F839
:10BC4000E13403EB430305EBC303434493F8F134BE
:10BC50000D2B7FF421AF019A802393771EE700BF5D
:10BC6000565555550400001010B504466FF0DAF92A
:10BC700081B22046BDE81040FCF792BC2DE9F041AE
:10BC80001E4B93F8E02493F8E1349A422FD11C4FD5
:10BC90007D68002D12DD3846002410F8086BA046A0
:10BCA000013416B1037E012B1CD002691368AC422B
:10BCB00043F0010300F580701360F1D120F0D2F958
:10BCC000D7F8F448002C0BDD0E4A02EBC4041168CF
:10BCD00093888889083203439BB294428B81F6D1C2
:10BCE000BDE8F08180F8F080FCF7FCFCDDE769F04E
:10BCF000FBFC0028CBD1BDE8F08100BF501E002026
:10BD000004000010FC08001010B57D4C94F8E024ED
:10BD100094F8E1349A4240F099817A4B93F81829CB
:10BD2000002A00F0EC8093F81C39002B40F0EC80E6
:10BD3000D4F8E018088820F080000004000C088087
:10BD4000B4F8E408C862088880B240F08000088037
:10BD50004B62B1F80CC0B4F8F40840EA0C0080B2B1
:10BD6000012A8881A4F8F43800F0C980D4F8F818C2
:10BD7000088820F080000004000C0880B4F8FC085B
:10BD8000C862088880B240F0800008804B62B1F839
:10BD90000CC0B4F80C0940EA0C0080B2022A888179
:10BDA000A4F80C3900F0AB80D4F81019088820F002
:10BDB00080000004000C0880B4F81409C8620888E8
:10BDC00080B240F0800008804B62B1F80CC0B4F83B
:10BDD000240940EA0C0080B2032A8881A4F824399F
:10BDE00000F08D80D4F82819088820F08000000425
:10BDF000000C0880B4F82C09C862088880B240F0B2
:10BE0000800008804B62B1F80CC0B4F83C0940EAED
:10BE10000C0080B2042A8881A4F83C396FD0D4F891
:10BE20004019088820F080000004000C0880B4F855
:10BE30004409C862088880B240F0800008804B62E4
:10BE4000B1F80CC0B4F8540940EA0C0080B2052ADD
:10BE50008881A4F8543952D0D4F85819088820F0B1
:10BE600080000004000C0880B4F85C09C8620888EF
:10BE700080B240F0800008804B62B1F80CC0B4F88A
:10BE80006C0940EA0C0080B2062A8881A4F86C395B
:10BE900035D0D4F87019088820F080000004000C18
:10BEA0000880B4F87409C862088880B240F0800045
:10BEB00008804B62B1F80CC0B4F8840940EA0C0069
:10BEC00080B2072A8881A4F8843918D0D4F8882948
:10BED000B4F88C09118821F080010904090C118043
:10BEE000D0621088B4F89C1980B240F080001080B5
:10BEF00053629089014389B29181A4F89C3910BDA5
:10BF0000501E002004000010D4F8E838B4F8EC18F3
:10BF100059601968D4F8E00841F00101196040F255
:10BF20000D33A0F84830818989B241F48071012A2B
:10BF30008181E4D0D4F80019B4F804094860086895
:10BF400040F001000860D4F8F808A0F84830818972
:10BF500089B241F48071022A8181D0D0D4F81819B5
:10BF6000B4F81C094860086840F001000860D4F883
:10BF70001009A0F84830818989B241F48071032A00
:10BF80008181BCD0D4F83019B4F83409486008680D
:10BF900040F001000860D4F82809A0F848308189F1
:10BFA00089B241F48071042A8181A8D0D4F848195B
:10BFB000B4F84C094860086840F001000860D4F803
:10BFC0004009A0F84830818989B241F48071052A7E
:10BFD000818194D0D4F86019B4F864094860086885
:10BFE00040F001000860D4F85809A0F84830818971
:10BFF00089B241F48071062A818180D0D4F8781901
:10C00000B4F87C094860086840F001000860D4F882
:10C010007009A0F84830818989B241F48071072AFB
:10C0200081813FF46CAFD4F89019B4F894294A6038
:10C030000868D4F8882940F001000860A2F8483068
:10C0400093899BB243F48073938110BD69F04CFBDC
:10C0500000287FF462AE10BDF8B590F871301C096D
:10C06000013C052C0FD81B4E06EB44020546B2F8E6
:10C07000500003F00F0340FA03F2D20703D595F8FE
:10C080007C70012F01D00120F8BD07FA03F3013BBA
:10C09000184034446DF034FD94F85C200E4C10448C
:10C0A00054F8302004EBC0041069A3881840EBD08A
:10C0B000EB6E002285F87C2093F821202046022197
:10C0C0001EF02AFC2A6E93899BB243F0080338467F
:10C0D0009381F8BD80BA0708BC2300202DE9F04702
:10C0E000037D01681F2B044608D94868A3F1200589
:10C0F0002022AA40024206D1BDE8F087086820222B
:10C100009A400242F8D0604A604E5268C6F8202930
:10C1100096F81C29A569DFF880910ABB8C2202FBE6
:10C120000592D2F88800D2F80071D0F80080386803
:10C13000B2F88CC020F001003860B8F80C2092B240
:10C1400022EA0C02A8F80C20327802BB1F2B40F226
:10C150009080A3F1200220239340CB60BDE8F087BC
:10C160008C2202FB0592D2F888205069D2F8008018
:10C17000026822F001020260B8F80C2022F48072FA
:10C180001204120CA8F80C203278002ADED04FF0EE
:10C190008C0A0AFB059ADAF80071384662F098FCBE
:10C1A000D6F8283901228AF8D420002B67D0B8F8B5
:10C1B000003037499BB243F08003A8F800308C234D
:10C1C00003FB05F54FF0FF332944C8F82C304046F7
:10C1D00062F0BAFB09EB05030022D3F8AC00C3F808
:10C1E000A420D3F8982039680243D3F8B000024362
:10C1F000D3F8B4000243D3F8B8000243D3F8BC002C
:10C200000243D3F8C0000243D3F8CC000243D3F872
:10C21000D00002431F48084002433A60D3E931206E
:10C220007969024321F007010A437A61D3F8A82013
:10C230007A60D3F89C20BA60D3F8A020FA60D3F8D3
:10C24000002116215160116841F001011160D3F8FD
:10C250008820B3F88C30126891890B439BB20A494D
:10C2600093814B68C6F82439237D21681F2B3FF644
:10C2700070AF202202FA03F38B60BDE8F0871FF055
:10C28000F1FEC6F8280992E7001000E00400001053
:10C29000441F00203F801CF0501E00202DE9F04F6D
:10C2A000DFF80CB19BF8004087B024B90124204688
:10C2B00007B0BDE8F08F3B4ED6F850551FF0D2FEC8
:10C2C0009BF860390390002B00F0DE82364AA2FB17
:10C2D0000532364B5209A3FB0213DB0803EB830341
:10C2E000A2EB4303DAB204920BF20C5202EB83038B
:10C2F00000930BF2EC73019206F1E0040293002725
:10C30000DBF82839039AD31A04D454F8082C934242
:10C31000C0F26A82234A54F858AC256ADAF8006001
:10C320008C2303FB072393F8D430002B40F0968135
:10C33000284662F0CDFB1B4A8C2303FB0723002217
:10C3400083F8D4209AF805100C2914D8DFE811F0EE
:10C350007801130013001300710113001300130080
:10C360007F011300130013000D00B38B23F400634F
:10C370001B041B0CB3832246304625F0BFFD9AF800
:10C3800005300C2B1ED8DFE813F04B011D001D00FB
:10C390001D0042011D001D001D0039011D001D0072
:10C3A0001D001500501E00201F85EB51CDCCCCCCBC
:10C3B00004000010B38B23F400631B041B0C43F434
:10C3C0000063B383019B54F8342C54F8101C5C3385
:10C3D0000193009B5C330093029B1433029354F847
:10C3E000483C43F04003134354F8302C134354F8B3
:10C3F0002C2C134354F8282C134354F8242C1343A7
:10C4000054F8202C1343402244F83C2C54F8142CAC
:10C4100013432A6822F07E6222F45F3222F47072A3
:10C420000B4313432B6054E907316A690B4322F035
:10C43000070213436B6154F8383C6B6054F8443C7A
:10C44000AB6054F8403CEB602B6843F010032B606A
:10C450009BF8603901379F4204F18C04FFF650AF1E
:10C46000012200218BF8F228CBF82819002B3FF489
:10C470001DAF9D4890F89010890700F1A081D0F879
:10C480008810086849798A40018C92B289B221EA01
:10C4900002010184018C89B20A43012B02843FF41A
:10C4A00005AF914991F81C21970700F1A281D1F8BD
:10C4B000142110685479018C012289B2A24092B2F1
:10C4C00021EA02010184018C89B20A43022B028411
:10C4D0003FF4ECAE844991F8A821960700F1A281BF
:10C4E000D1F8A02110685479018C012289B2A240B0
:10C4F00092B221EA02010184018C89B20A43032B22
:10C5000002843FF4D3AE784991F83422950700F1C4
:10C510009281D1F82C2210685479018C012289B2C1
:10C52000A24092B221EA02010184018C89B20A433D
:10C53000042B02843FF4BAAE6B4991F8C0229407F1
:10C5400000F18281D1F8B82210685479018C01225F
:10C5500089B2A24092B221EA02010184018C89B21F
:10C560000A43052B02843FF4A1AE5F4991F84C23A6
:10C57000900700F17281D1F8442310685479018C3E
:10C58000012289B2A24092B221EA02010184018C07
:10C5900089B20A43062B02843FF488AE524991F8CF
:10C5A000D823920700F16281D1F8D0231068547922
:10C5B000018C012289B2A24092B221EA02010184D7
:10C5C000018C89B20A43082B02847FF46FAE464A7D
:10C5D00092F864349B0740F15281D2F85C24042322
:10C5E000116850790A8C83409BB292B222EA03020E
:10C5F0000A840A8C92B213430B8457E6B38B23F060
:10C6000008031B041B0C43F00803B383DAE6338BE7
:10C6100023F400631B041B0C43F400633383D1E653
:10C62000338B23F008031B041B0C43F008033383F4
:10C63000C8E6338B23F400631B041B0C33839AE698
:10C64000338B23F008031B041B0C338393E6B38B5B
:10C6500023F008031B041B0CB3838CE66B6834F8CF
:10C66000542C1FFA83F8B389C8F116089BB223EA49
:10C670000203B8F1070FB3817FF65AAEDBF8F43747
:10C680000133CBF8F437A36A05939E4600225EF887
:10C6900004CB0121914660461DE0DEF800C0B9F1EF
:10C6A000140FACEB000321DC13F1080048BF03F1C9
:10C6B0001700031109EB2019604603F1FF3C01311B
:10C6C00002FA03F3012202FA0CF2884542EA03025D
:10C6D0000EF1040E0AD38845DFD8C9F11503DEF840
:10C6E00000004FF01509E8E7501E0020B9F1150FC2
:10C6F0005CD16848C2F38423C2F3441100EB830386
:10C7000000EB8101D3F84032D1F840121B0243EA1A
:10C71000011302F01F0100EB8101C2F3C43200EBF0
:10C720008202D1F84012D2F840220B4343EA02338E
:10C7300083EA132282EA121202F00F020F2A35D185
:10C74000C3F30F134FF6FF7293422FD0B3F5606F10
:10C7500058D0029A93810198049990F858208A42FF
:10C7600010D0009A91680268521A00990260096B11
:10C770004268521A0099426000228A600A63049952
:10C7800080F85810019900980A6801320A6082689E
:10C79000013282604FF6FF7293427FF4C9AD4B685D
:10C7A00001334B60036B01330363C1E5DBF8F03702
:10C7B0000133CBF8F0376FB14FF6FF73CBE7364A52
:10C7C000D2F8882010685479018C0422A24089B2E2
:10C7D00092B25CE60599314858226FF09BF8DAF87E
:10C7E00000604FF6FF73B6E70024204607B0BDE8AF
:10C7F000F08F294AD2F8142110685479018C042250
:10C8000089B25BE6244991F8E12402EB420201EB94
:10C81000C2023A4492F8F1240D2A9AD10299802258
:10C820008A7798E71C4AD2F8A02110685479018CC5
:10C83000042289B25BE6184AD2F82C221068547997
:10C84000018C042289B26BE6134AD2F8B822106830
:10C850005479018C042289B27BE60F4AD2F8442332
:10C8600010685479018C042289B28BE60A4AD2F806
:10C87000D02310685479018C042289B29BE6064BC0
:10C88000D3F85C240123ABE601228BF8F228CBF825
:10C8900028390CE580BA0708501E00209C080010BB
:10C8A0002DE9F341144698460DF10702012306468F
:10C8B0000F461DF007FB88B1022023F02BFF9DF8E7
:10C8C000075025EA040444EA0802394630468DF848
:10C8D00007201DF05FFA089824F018F902B0BDE8AF
:10C8E000F08173B5642300F11004009301231A460C
:10C8F000054612212046FFF7D3FF02220D212046D4
:10C900001DF048FA012024F001F902220E212046F0
:10C910001DF040FA012024F0F9F87422102120467D
:10C920001DF038FA012024F0F1F8AC221121204644
:10C930001DF030FA0126012024F0E8F844237C227F
:10C94000122120460096FFF7ABFF06231A4613215B
:10C9500020460096FFF7A4FF00231722152120464A
:10C960000096FFF79DFF0223204600961A461821E5
:10C97000FFF796FF95F8210190B11EF061FA044689
:10C9800008B12623C3802946084B41F80C3F0023F9
:10C9900020460093F0221EF0B5FC20461DF0E8FE74
:10C9A00003481DF0E7F8A88202B070BD01880008B6
:10C9B0008096980038B500F110040546FCF7C0FCDD
:10C9C00080226B2120461DF0E5F9642024F09EF8BA
:10C9D00003226B2120461DF0DDF995F82021192155
:10C9E00020461DF0D7F90F2024F090F82846FBF7D9
:10C9F0005FFB1A21024620461DF0CCF918221B21AC
:10CA000020461DF0C7F918221C2120461DF0C2F94E
:10CA10000222372120461DF0BDF920460122BDE843
:10CA2000384038211DF0B6B9F8B5054600F11004BC
:10CA3000FCF786FC95F8D830072B5BD195F81D31B3
:10CA40000226002B58D1374680226B2120461DF04C
:10CA5000A1F9642024F05AF80722682120461DF02D
:10CA600099F9642024F052F800226B2120461DF031
:10CA700091F9642024F04AF801226B2120461DF030
:10CA800089F90F2024F042F8FA001B2120461DF0FE
:10CA900081F90F2024F03AF8F2001C2120461DF005
:10CAA00079F90F2024F032F82846FBF701FB1A2110
:10CAB000024620461DF06EF90F2024F027F895F865
:10CAC0002021192120461DF065F9642024F01EF86C
:10CAD0001022372120461DF05DF90F2024F016F8B2
:10CAE0002046012238211DF055F9BDE8F8400F20FD
:10CAF00024F00CB80326A6E70327A5E710B50446E3
:10CB0000FFF792FF1022A0186A211DF00DF9642092
:10CB100023F0FCFF04481DF02DF8A082BDE8104072
:10CB2000012023F0F7BD00BF002D310138B5802270
:10CB30006B2105461DF0F8F8642023F0E7FFF5218E
:10CB400028461DF04BFBAC2818D005D8122817D06A
:10CB5000982817D000240FE0AF28FBD10924102219
:10CB60006A2128461DF0E0F82846032268211DF0BE
:10CB7000DBF8642023F0CAFF204638BD0724EEE727
:10CB80000824ECE70B24EAE738B500224E210546DD
:10CB90001DF0CAF81524962023F0B8FFF521284689
:10CBA0001DF01CFB422807D0472807D0013C14F099
:10CBB000FF04F0D1204638BD0C24FBE70D24F9E733
:10CBC0002DE9F743054600F1100479481CF0D2FF27
:10CBD000A8822846FCF7B4FB42F21F53A5F84C315B
:10CBE0000022762120461DF09FF800224E2120468B
:10CBF0001DF09AF895F8D8906E4BB9F10C0F93F898
:10CC0000B53840F0AD80012B00F0BA80022B15BF83
:10CC1000062603264FF4DC774FF4786714BF4FF0F5
:10CC200015084FF03F080122762120461DF07CF8C0
:10CC300042460C2120461DF077F807F0FC020D213A
:10CC400020461DF071F8320142EA17220E212046DB
:10CC50001DF06AF8B9F10C0F14BF4FF006084FF041
:10CC600015084FF002024FF07601204615BF242729
:10CC70004FF4DC770A2606261DF056F84FEA4802E4
:10CC8000032120461DF050F807F0BC020421204685
:10CC90001DF04AF8320142EA1722052120461DF014
:10CCA00043F80022762120461DF03EF8FF22522153
:10CCB00020461DF039F80322142120461DF034F8D7
:10CCC0000022632120461DF02FF80822652120460E
:10CCD0001DF02AF8E42120461DF080FA00F0EF0054
:10CCE00040F06002642120461DF01EF8CD21204650
:10CCF0001DF074FA00F03F0040F040024D21204644
:10CD00001DF012F80F224E2120461DF00DF80120D3
:10CD100023F0FCFE95F8DB30002B43D095F8203152
:10CD2000013343F00103B3FA83F3C3F11F03032B71
:10CD300038DC214AD25C02F00F024F2120460192DA
:10CD40001CF0F2FF0F2023F0E1FE2046019A502153
:10CD50001CF0EAFF0F2003B0BDE8F04323F0D6BE7D
:10CD6000022B13D0032B17D0012B15BF0A26082640
:10CD70002427902714BF4FF006084FF00C0852E705
:10CD800004264FF4C0674FF027084CE706264FF4FF
:10CD9000DC774FF0150846E704264FF4AC674FF0F8
:10CDA000250840E7002385F8DB300622C3E700BFF3
:10CDB00000366E01501E00209851080838B58022B8
:10CDC0006B2104461CF0B0FF642023F09FFEF52188
:10CDD00020461DF003FA0546012023F09BFC682D38
:10CDE0001BD18C2120461DF0F9F918280DD81428E4
:10CDF00034BF002503252046072268211CF094FF3C
:10CE0000642023F083FE284638BDA0F15403DBB232
:10CE1000072B34BF03250025EDE70025F3E708B510
:10CE2000F5211DF0DBF9702818D008D8422817D05A
:10CE3000472817D0122814BF0020082008BDAC28AE
:10CE400012D006D800F0FD00712814BF0020062083
:10CE5000F4E7AF2814BF00200920EFE70520EDE735
:10CE60000C20EBE70D20E9E70720E7E7BFF34F8F42
:10CE70000549064BCA6802F4E0621343CB60BFF376
:10CE80004F8F00BFFDE700BF00ED00E00400FA0592
:10CE90001648174A174938B5174C184D121A6EF034
:10CEA00039FDD4F88820164B164842F47002C4F8B5
:10CEB00088201A68002142F001021A6099601A68FD
:10CEC00022F0847222F480321A6058601A6822F4C8
:10CED00080221A600C4AD960521B28460B496EF01A
:10CEE00019FDA560BDE83840FBF78AB800000010C6
:10CEF00004000010EB0F090800ED00E00000002026
:10CF00000038024010300024880100200000000892
:10CF10002DE9F04302691778012F85B004460D46CC
:10CF200018D10B79013B13714B79002B08BF682393
:10CF300000F1100803754FF000093B460DF10502A2
:10CF4000752140468DF805901CF0BCFF0646002870
:10CF50003ED1226902231370EB7823B900263046B4
:10CF600005B0BDE8F08304F11008A97840461CF034
:10CF700037FE06460028F1D0E8781DF061FFA06179
:10CF80002B780133DBB210B1C371222383710921E5
:10CF90001EF07AF9A0691CF01DFE424AD2F8503505
:10CFA000632BFBD94048DFF80891404F1CF0E2FDAD
:10CFB000A08202E059F8047B5FB34046B8470346BD
:10CFC0000028F7D0206984F8D8306BF097F9C6E7CD
:10CFD00020696BF093F93B4649460DF10602404645
:10CFE0001CF070FF9DF8063003F07E038DF80630CC
:10CFF00008B1682B14D09DF8053003F07E03682B30
:10D000008DF805300FD0702BA9D1042384F8D830C7
:10D01000A5E7E8781DF014FF1EF055F93E469EE79F
:10D0200084F8D8709BE70222062384F8D82019469A
:10D0300002AA40461CF046FFE0B19DF80D309DF875
:10D040000B209B00520002F0020203F00403134382
:10D050009DF8092002F0010213430BD0012B1DD0D3
:10D06000022B17D003F00303032B13D0032023F06C
:10D0700005FF74E701230DF1070240460C211CF067
:10D0800021FF0028F2D09DF8073013F00F03EDD0F8
:10D09000042B03D0012384F8D93060E7002384F8FF
:10D0A000D9305CE7501E002040420F00BDCD000883
:10D0B00044BD070843680B4A23F0407323F4807390
:10D0C00043F48073436083681A4042F00202826036
:10D0D000C36A0139CAB223F4700141EA0251C16244
:10D0E000704700BFFDF7FFC0704700BF0020FAF790
:10D0F000F3BF00BF0120FAF7EFBF00BF0220FAF72D
:10D10000EBBF00BF431C00F044812DE9F04FDFF876
:10D11000CCA300EB80030AEBC30287B0D2F80480F3
:10D12000810005460191DB00B8F1000F05D0D468FD
:10D13000002C00F0FD80A17911B107B0BDE8F08F9F
:10D14000D2F81090B9F1000F00F03B8199F8062059
:10D15000002AF2D118330AF10406F018D8F8047046
:10D16000F250691CC0E901221523C260C9B2A37143
:10D170001623E17189F8071089F8063098F818002D
:10D1800068F0A4FBBB882268A18823F440731B04C9
:10D190001B0CBB80D9F800301183B9F804201A8326
:10D1A000112120461DF090FE112148461DF08CFEF5
:10D1B00009264FF0330B05E0BBF1010B00F0E380D3
:10D1C00023F0A8FA0A20002CF6D02268A18813695F
:10D1D0001942F1D05183052023F09CFA2368A288DC
:10D1E0001A83052023F096FA013EE2D1002C00F0CC
:10D1F0000D812368A2885A83052023F08BFAB9F1A8
:10D20000000F00F02B81D9F80030B9F804205A83C0
:10D21000052023F07FFA2368A2881A83052023F0D3
:10D2200079FAD9F80030B9F804201A83019B204616
:10D230005C190AEBC404A37D227D002B14BF3221AC
:10D2400012211CF0ADFAA37D627D002B14BF3221A8
:10D25000122148461CF0A4FA9A4B9F4200F0E88045
:10D26000994B9F4200F0EF80984B9F4200F0008165
:10D27000019B2B440AEBC30A4FF47A73BAF81840A7
:10D2800003FB04F4BB8823F440731B041B0CBB801A
:10D290003B889BB243F001033B80BD8802A861F04C
:10D2A000D3F925F03F050498894B2D04A3FB0023F7
:10D2B0002D0C45EA9345BD803A8822F00102120404
:10D2C000120C3A80834A990C94420B4662DC62004D
:10D2D000B0FBF2F292B20133042A38BF04223B843D
:10D2E000BA833B889BB243F001033B803B8823F425
:10D2F000816323F002031B041B0C4FF4804143F4B1
:10D3000080633B8039813B8823F080031B041B0C26
:10D3100000223B8098F81A00114666F0BFFB0022FD
:10D3200098F81900114607B0BDE8F04F66F0B6BB9B
:10D33000D2F81090B9F1000F00F0A58099F80620FE
:10D34000002A7FF4FAAE18330AF10401CA18D8F89B
:10D350000470CC50C2E901441623D46089F8063029
:10D360006B1C89F8073098F8180068F0AFFABB8892
:10D37000B9F8042023F440731B041B0CBB80D9F8BC
:10D3800000301A8310E7002C3DD1052023F0C2F9AC
:10D3900027E7704704EB4404B0FBF4F082B2C0F31B
:10D3A0000B0008B942F001024FF4967301FB03F33E
:10D3B0004949A1FB03139B09013342F400423B841A
:10D3C0008EE70AF104011833CA18D8F8047041F83E
:10D3D0000390C2E901991523C2F80C90A371431C74
:10D3E000E37198F8180068F071FABB88A28823F4FA
:10D3F00040731B041B0CBB80236811211A83204639
:10D400001DF062FDD4E62268A188E3E6052023F042
:10D4100081F9B9F1000F4DD0D9F80030B9F80420E6
:10D420005A83052023F076F9052023F073F9F8E6F6
:10D4300003F5F2331A6A42F400121A621A6A22F4ED
:10D4400000121A6214E703F5F0331A6A42F48002FC
:10D450001A621A6A22F480021A6209E7052023F090
:10D4600059F92368A2881A83052023F053F9DDE6D1
:10D4700003F5EE331A6A42F400021A621A6A22F4C1
:10D4800000021A62F4E618330AF10401CA18D8F847
:10D49000047041F80390C2E90199C2F80C9098F821
:10D4A000180068F013FABB8823F440731B041B0CAC
:10D4B000BB807DE6052023F02DF9052023F02AF915
:10D4C000B4E600BF0054004000580040005C00403B
:10D4D00083DE1B43A0860100D34D6210501E002046
:10D4E0002DE9F84307461EF091FDDFF84C8007EB6D
:10D4F0008709044608EBC90542F20F7604E01EF0E6
:10D5000085FD031BB3420ADC6B7F002BF7D108EBD0
:10D51000C90898F81C0080F00100BDE8F883B8F84D
:10D52000A039013338469BB2A8F8A039FFF7EAFDCD
:10D530000020BDE8F88300BF501E002010B582B067
:10D540008DF80730431C0CD00228044609DC0DF18D
:10D55000070368F061F920B12046FFF7C1FF02B070
:10D5600010BD002002B010BD70B5284D00EB800347
:10D5700005EBC30384B05A685468A28A92B203923E
:10D58000039A12F4706F1CBF01221A77039B13F4E5
:10D59000E06F4FEA80060CD1A38A304423F4706315
:10D5A00005EBC0051B041B0C0022A3826A7704B0A4
:10D5B00070BD238BA38823F480631B041B0CA38002
:10D5C000039B9A05E8D423889B05E5D42388D905D5
:10D5D0000FD52388DA05FCD423889BB243F400736B
:10D5E000238023889B05FCD40190FFF78BFD0198D5
:10D5F000D2E723889BB243F400732380A38823F4EB
:10D6000040731B041B0CA380C6E700BF501E002004
:10D610000020A9E70120A7E70220A5E72DE9F84FA0
:10D62000304F00EB800407EBC404D4F80880B8F155
:10D63000000F04D09A46637F03F0FF0923B14FF037
:10D6400000094846BDE8F88F0E46934605461EF091
:10D65000DDFC0A9B7600F6B2C4E909330123A67704
:10D6600084F81FB084F8219084F8223084F820A038
:10D67000637784F81C90B8F804209105064622D4FC
:10D68000B8F80030DA0512D442F20F7404E01EF04C
:10D69000BDFC831BA3421ADCB8F800309B05F6D40E
:10D6A000B8F800309BB243F48073A8F80030B8F8A3
:10D6B00004309BB24FF0010943F44073A8F80430E2
:10D6C0004846BDE8F88F99464846BDE8F88FB7F858
:10D6D000A03901339BB22846A7F8A039FFF712FD05
:10D6E000AFE700BF501E002070B58569296995F825
:10D6F0004C210B78012B96B0044634D0022B05D177
:10D700004B6A05F1100623B19E4202D0002016B0EC
:10D7100070BD0B6A002BF9D162F07F028DF80F20EB
:10D720000DF10F0206920122CDE90732CDE90A334D
:10D730008DF824300F931293149304AB0C930623AB
:10D740008DF838208DF84C200D930022002306A977
:10D750003046CDE910231CF0B1FA2B695A6A62B346
:10D76000964223D0FEE791F90460731CCED0022EBE
:10D77000CCDC04AB297D009330460623FFF74EFF37
:10D780000028C3D03046FFF7ABFE0028BED0BDF85E
:10D790001010BDF81220BDF8143049BA52BA5BBA65
:10D7A0000120E1812282638216B070BD1A6A002ACC
:10D7B000EDD01A6A002AF9D1E9E71A6A002AE6D000
:10D7C0001A6A002AF9D1E2E730B5016990F84D21D3
:10D7D0000B78012B97B0044634D0022B05D14B6A4D
:10D7E00000F1100523B19D4202D0002017B030BDDA
:10D7F0000B6A002BF9D10121CDE90731CDE90A33BC
:10D800008DF824300F931293149304AB62F07F02CF
:10D810000DF10F000C93062306908DF80F208DF864
:10D82000381000228DF84C100D9306A900232846CD
:10D83000CDE910231CF042FA23695A6A7AB3954263
:10D8400026D0FEE791F904506B1CCED0022DCCDC23
:10D8500004AB017D009328460623FFF7DFFE002876
:10D86000C3D02846FFF73CFE0028BED0BDF81010FC
:10D87000BDF81220BDF8143049BA52BA5BBA012083
:10D88000A4F8D010A4F8D220A4F8D43017B030BD3A
:10D890001A6A002AEAD01A6A002AF9D1E6E71A6A57
:10D8A000002AE3D01A6A002AF9D1DFE738B500F17F
:10D8B00010050446FBF744FD03226B2128461CF0AB
:10D8C00033FA0F2022F026FF10226A2128461CF08E
:10D8D0002BFA0F2022F01EFF00226C2128461CF09C
:10D8E00023FA0F2022F016FF94F820211921284650
:10D8F0001CF01AFA0F2022F00DFF18221B212846D7
:10D900001CF012FA0F2022F005FF18221C212846D5
:10D910001CF00AFA0F2022F0FDFE102237212846C3
:10D920001CF002FA0F2022F0F5FE012238212846D1
:10D930001CF0FAF90F2022F0EDFE2046FAF7B8FBB2
