:020000040800F2
:10000000F0FF00104974050825FC040871F9010887
:10001000E9740508E9740508E974050800000000A2
:1000200000000000000000000000000029FC04089F
:100030002DFC04080000000031FC04083DBF01084D
:10004000E9740508E9740508E9740508E974050808
:10005000E9740508E9740508B9A40108DDA40108DC
:1000600019A5010855A5010891A50108B5BE00080C
:10007000C9BE0008DDBE0008F1BE000805BF0008CB
:1000800019BF00082DBF0008E9740508E9740508C8
:10009000E9740508E9740508E9740508CDA50108A7
:1000A000B9F5010819F50108C9F5010809F50108B4
:1000B00041F5010851F5010861F501089DB20008FC
:1000C00061B70008A5B2000865B70008E974050823
:1000D000E9740508C5B80108C9B90108CDBA010815
:1000E00009A60108E9740508C1030508D9F5010846
:1000F00091F50108E9F5010881F5010841BF000803
:10010000E9740508E974050871F50108E974050842
:10011000D1BB0108D5BC0108E9740508E9740508DC
:1001200055BF000869BF00087DBF000891BF0008E7
:10013000A5BF0008E9740508E9740508E974050815
:10014000E9740508E9740508E974050835FC040834
:10015000B9BF0008CDBF0008E1BF0008D9BD010844
:10016000ADB2000869B70008E9740508E97405082C
:10017000E9740508E9740508E9740508E9740508D7
:08018000E9740508E9740508A3
:0828000000C00F0800001008E1
:1080000082B01E4B002201920193019B1C4A043353
:108010000193019B1968936803F00C03042B06D0AD
:10802000082B08D0174B184A1A6002B07047154B3E
:10803000196002B070475368506813F4800F00F065
:108040003F00536812D1C3F388130F49B1FBF0F11D
:1080500001FB03F30A4A0B495268C2F301420132A1
:108060005200B3FBF2F30B6002B07047C3F3881306
:10807000B1FBF0F101FB03F3ECE700BF5028004037
:1080800000380240F01800200024F400074BD0F81C
:10809000E4105B68D0F8F0205B1A9A42B8BFC0F8D1
:1080A000F030012380F81C3100207047001000E000
:1080B000B84B00EB800103EBC10170B54A68526810
:1080C000B2F814E01EF0010F4FEA800C6ED15FFA97
:1080D0008EF4A60742D5BFF35F8F91F82040012CA4
:1080E000E5B200F0D180118BBFF35F8F0CEB000184
:1080F00003EBC10191F82040022C00F0E7800CEB6B
:10810000000103EBC10191F82040032C07D191F845
:10811000221021B193F87D10002940F0E78091886A
:1081200089B241F48061918093F97C100CEB000ED0
:1081300003EBCE0E9EF820E00EF1010E8E450CD121
:10814000002183F87D1093F87E10002940F0B7805D
:10815000604403EBC00300225A7770BD65075DD40D
:1081600014F0400400F0CB80148A93F97C508E6A9E
:10817000E4B274555FFA85FE0EF1010464B291F821
:10818000206083F87C40E51CAE42214600F025814A
:108190000CEB000503EBC50595F82050AC42C5D1AA
:1081A0000EF1020149B283F87C10BFE7B2F800E09B
:1081B0002EF4006E4FEA0E4E4FEA1E4EA2F800E07B
:1081C0001488A4B244F48064148091F822400025FD
:1081D00083F87C50002C48D093F87D40002C41D08F
:1081E000012183F87D100CEB000103EBC10191F834
:1081F0002010022904D1118889B241F40061118054
:108200000CEB000103EBC101897F41F001011182F8
:10821000604403EBC00393F8203070BD91F8224016
:10822000012583F87E50002C70D093F87D40002CFF
:1082300071D10CEB000103EBC10191F82110002971
:1082400000F0AA80118889B241F40071118093F87E
:108250007C1001314CB283F87C401188CE05FCD4EF
:10826000214663E7C97FFF29BAD00CEB000103EB7D
:10827000C1018C7F04F0FE041482CA7FFF2AC7D09C
:10828000FF2283F87C20C3E791F8221000293FF4F5
:108290002AAF93F87D1000293FF425AF118821F40F
:1082A00080610904090C1180BFF35F8F118B118865
:1082B00083F87E5089B241F4007111802FE79188D4
:1082C00021F440710904090C918041E791F82210D2
:1082D00000293FF414AF93F87D1000293FF40FAF4D
:1082E000118821F480610904090C1180918821F41E
:1082F00080610904090C918093F97C1016E71FFA3C
:108300008EF52D062DD493F97C100FE793F87D1090
:1083100000298ED096E791F82040022C148846D987
:1083200024F480642404240C1480158A8E6A93F942
:108330007C40EDB235558E6A118889B241F40071E6
:108340001180E4B2158A611C49B2EDB2755491886E
:10835000023489B264B241F4806183F87C40918038
:108360007BE793F97C506E1C3ED04C6A665D1682AA
:108370006C1C91F8205064B2A54283F87C402146E1
:108380007FF4D4AE948824F480642404240C948074
:10839000CCE600BFF0180020118893F97C4089B228
:1083A00041F480711180012183F87D1055E7A4B25A
:1083B00044F400741480158A8E6A93F97C40EDB2FF
:1083C0003555E4B28E6A158A611C49B20334EDB2A8
:1083D00064B2755483F87C403FE7958825F4806546
:1083E0002D042D0C9580D3E683F87C40CC7F14823D
:1083F00091F8224024B991F8201000297FF408AFA9
:10840000918821F480610904090C918000E700BF84
:1084100030B5EAB18E464FEA014C034600F1C00583
:10842000002419689A6841EA0C0142EA0E029A6037
:10843000C3E900140C33AB42F3D1D0F8C030C0F81C
:10844000C44043EA0E03C0F8C030C0F8C84030BD95
:108450004FEA014E8C46E0E783691969B3F80CC016
:108460000A6830B49C6822F0010224680A60A2897C
:1084700092B222EA0C02A281027D04681F2A06D968
:108480006568203A08209040284245D0FEE72568DC
:10849000082090402842F9D1202000FA02F2A26080
:1084A000264A1278002A35D01A7E012A39D0D3F80C
:1084B000F4200132C3F8F420EFF31181502282F34B
:1084C000128858685C6C026822EA04029C6C2243A1
:1084D000C9B2026081F31188D3E90C401A69996826
:1084E0001D6C096814605061D3E90E4054609060BF
:1084F0000024B3F8A800D5604C62C862106801245B
:10850000204310601C7683F8F1408A899B891343CD
:108510009BB28B8130BC7047202000FA02F2E260EF
:10852000BEE7002283F8F120D3F8F8000A68013092
:1085300022F00102C3F8F8000A60EBE70400001023
:1085400010B40C4C6368002B11DD002004F1080C02
:108550000146DCF8A03003F1C00259600C339342AD
:10856000FBD16368013083420CF5807CF1DC5DF85F
:10857000044B704704000010F0B5494C04EB401C5C
:108580009CF8242402B9F0BD464B4FF08C0E0EFB34
:10859000003E93F8E06493F8E1249EF882708CF832
:1085A0000A7496424FF0000C4FEA40158EF882C0D4
:1085B0000ED002EB420C03EBCC0C57009CF8E4C449
:1085C0000CF1FF3EBEF1010F5CD9BCF1030F53D09B
:1085D0006019A0F80814EFF31182902383F3128836
:1085E00090F80A34B0F8081443EA41030021D2B2EB
:1085F0009BB280F80A1482F311881A09217882EA62
:1086000013225A40D9B1D0F82044D0F80C14D4F831
:10861000A040D2431B019BB202F00F020120884010
:10862000134304F1C0015A0013F4004F93B202D176
:108630006268024362600C348C42F4D1F0BDD0F821
:108640002014D0F80C04D1F8A0401B0100F1100157
:108650009BB202F00F0201208840134304F1C001D5
:108660005A0013F4004F93B202D162680243626071
:108670000C34A142F4D1F0BD02F1010C0CF0030C5A
:10868000B445A5D03A4403EBC202131893F8F11491
:1086900000299DD06319012283F80A2498E700BFBE
:1086A00004000010F0180020704700BF024B03EBDD
:1086B000401090F825047047040000104368B0F89B
:1086C000502010B41A83EFF31182502383F31288E1
:1086D0004168446C0B6823EA0403C46C2343D2B2A0
:1086E0000B6082F31188D0E9074182680369126840
:1086F0001C605961D0E909415C60C46A9960B0F8B6
:108700006010DC600023D1625DF8044B0376704793
:10871000037D1F2B30B54FF02002046816D9A3F15A
:1087200020056168AA400A420FD00C4A002182F855
:10873000441541680A681F2B22F001020A604FF0BD
:10874000200206D9203B9A40E26030BD21689A4061
:10875000E9E702FA03F3A360F7E700BFF01800208F
:108760004FF40063838170473D4B9FED3E4A93F881
:10877000491593F8480593F84A2593F84BC5090223
:1087800001EB00410A44090248BF02F17F4207EEB3
:10879000902AB3F9642593F84C0593F84D1506EE2D
:1087A000102AB3F96025F8EEE77A06EE902A67EE14
:1087B000847AB3F96225B8EEC66AF8EEE66A00027A
:1087C000E7EE866A00EB0C40014406EE102AB3F98E
:1087D0005E2505EE102AD3F85825000207EE102A70
:1087E000B3F95C2548BF01F17F41F8EEC75A04EEAA
:1087F000902A07EE101AD3F85425B8EEC66AB8EEE0
:10880000C55AE6EEA75A012006EE902AB8EEC77ABE
:10881000A7EE865AB3F95225B3F9503527EE047AFC
:10882000F8EEE44AB8EEE66A06EE902AA7EE246A6D
:10883000E5EE075AF8EEE66A05EE103A26EE877A7C
:10884000B8EEC55AF6EE004AF0EE466AE7EEA56AC3
:10885000054BA5EE247AC3ED066A83ED077A7047CF
:10886000F018002008218436401E002030B10A4B49
:10887000D3ED067AFDEEE77AC0ED007A51B1064BF2
:108880009FED067AD3ED077A67EE877AFDEEE77AF9
:10889000C1ED007A704700BF401E00200000C842B2
:1088A000704700BF0120704701207047704700BF2C
:1088B000024B002083F87005704700BFF0180020BD
:1088C00038B590F82820012A04464FF0000307D05D
:1088D000427F5AB103F00100607780F0010038BD9B
:1088E000406A0268117B69B9637F0BB9012038BD0A
:1088F000094D0A49022305F2745211F0B1FA95F8B4
:108900007535E7E7516A19B1884201D0002038BDBA
:10891000136A002BE8D0F9E7F01800208801002046
:1089200038B590F82810427F012904461DD022BB9B
:10893000012038BD596A09B1884217D11B6AABB909
:10894000002AF5D00E4D0F49022305F2745211F0A2
:1089500087FA95F8753503F0010363771A46002B03
:10896000E6D094F828100129F7D1606A0368197BD2
:108970000029DFD1002ADBD0E4E70023EBE700BFCA
:10898000F018002088010020012343770020704761
:10899000D0E90B2108B583690B4483610AB108460D
:1089A0009047002008BD00BF436A1B681B6A5B68D4
:1089B0005B78024613F0010008BF5077704700BF94
:1089C000C2628161704700BF704700BF04307047CA
:1089D0000C4B93F87C25D3F878150244D2B283F877
:1089E0007C2593F87C2508441206C3F8780505D544
:1089F00093F87C2582F0800283F87C25024B0122CB
:108A00009A707047F0180020880100202DE9F04787
:108A1000144FD7F88055ED0A1ED00026B04607F552
:108A2000B769D7F884351048D3F828A0C7F8B085BF
:108A3000AC19641010234A46E102D0470F280BDD21
:108A40000A4B03F1100C53F8041B013107D16345A5
:108A5000F9D12546B542E4DCE802BDE8F087661CA2
:108A6000F8E700BFF0180020741E0020A81E0020A8
:108A70001C4BD3F8C815D3F8CC258A1A322A16D83D
:108A8000D3F8E0258A4200D37047D3F8D42522B327
:108A90001068928810B444693231224218BF428370
:108AA0005DF8044B08BF0283C3F8E015704793F8E4
:108AB000D025D3F8D41502F0010219B132B90A68F1
:108AC000898811830022C3F8E02570470A688988E5
:108AD00051830022C3F8E02570473231C3F8E01516
:108AE000704700BFF0180020122301480B80704728
:108AF0008C010020042301480B807047A001002056
:108B00002048D0F8E837D0F8EC2730B59B184FF064
:108B10001A040C8001D11C4830BD1B4AD0F8EA175A
:108B20004FF0000E10467546B3F1204F4FEA137C0C
:108B30000CF130040EF1020E2ABF0CF1370C8470D8
:108B400080F802C0BEF1100FC5704FEA031300F1A8
:108B50000200E9D100200446B1F1204F4FEA117321
:108B600003F1300C00F102002ABF373382F812C043
:108B700093740828D4744FEA011102F10202EBD178
:108B8000014830BD00F0FF1FA4010020094A92F8FF
:108B9000D035D2F8D42503F001031AB123B91368F4
:108BA00092881A8300207047136892885A830020A5
:108BB000704700BFF01800204FF40070034B1060A6
:108BC000D3F8F0350B600020704700BFF01800208C
:108BD0000020704701207047012070470020704737
:108BE000164BD0F8E0105A6810B50446D0F8D800FB
:108BF00071B1131A99420BDC94F8D030C4F8D82024
:108C0000012B10D0D4F8D4300133C4F8D43010BDC7
:108C1000D4F8E430C4F8D8200344C4F8DC3094F825
:108C2000D030012BEED104F1E801201D11F050F8F5
:108C3000D4F8D4300133C4F8D43010BD001000E0B3
:108C400070B5214B214C94B0CDE90043022302932F
:108C50001F4B04930546231D012205930023CDE9F4
:108C60000632CDE90E33CDE910330B9313932B7FEE
:108C7000406A8DF80C20002B14BF052304230C93AD
:108C8000144B0993A4F108030A930E468DF8202093
:108C90008DF834208DF8482010F06CFF2B7F8BB1BD
:108CA000330E04F8073C063C320C330A2270637022
:108CB000A670686A694611F00BF8686A10F05AFFEE
:108CC00014B070BD073CEFE7101F0020C801002062
:108CD000A98900088989000810B5044694B050227B
:108CE000064968464FF030FE606A694610F0F0FFB2
:108CF000606A10F03FFF14B010BD00BFB48A0508D1
:108D00002DE9F0410446406A1E460F46904610F099
:108D100031FF237F002B40D02A4DA0690523C5F8E1
:108D20008030030E85F8493005F14A039870020C33
:108D3000000A58701A703B68C5F88C300020D8F8CB
:108D40000030C5F89430012E2363C5F8A4002CD060
:108D5000022E20D1D8F80420C5F89C00796885F847
:108D60009800C5F8A01013441749C5F8A8200120A1
:108D7000236385F8AC00C5F8B010144B617F606ABE
:108D800003F11402002914BF1946114610F0A0FF88
:108D9000E36A93B1206BBDE8F0810A4DA06904231A
:108DA000C5F8803005F14903C0E7074B85F89860A6
:108DB000C5E92730C5F8A800DFE7606A10F0DAFEE1
:108DC000E8E700BF8801002091890008D801002051
:108DD00000B583B081610192049A0093C2620123BD
:108DE0006A4601A9FFF78CFF03B05DF804FB00BFE2
:108DF000F0B5836993F8DC20012A8BB005462ED0AC
:108E0000023A012A36D893F84C21D3F89C101E4C14
:108E100062F07F030B708669D6F8A0305F1C0FCC20
:108E2000EC46ACE80F00D6F89C30CDE900370FCC0B
:108E3000ACE80F0094E803008CE80300694606F1F3
:108E4000100010F045FFAB691A69516A03F1100078
:108E500099B1884200D0FEE7116A0029FCD1D3F80D
:108E6000A0305A8852BAEA819A8852BA2A82DB889C
:108E70005BBA6B8201200BB0F0BD116A0029EED005
:108E8000116A0029F9D1EAE7048B05082DE9F041C0
:108E900090F8DC30D0F8A060012B8AB0044653D0A3
:108EA00016D8D0F89C304FF0FF321A605A609A60A2
:108EB000DA60D0F8E0300522B3F57A7FC0F8F02010
:108EC00064D8032380F8DC3001200AB0BDE8F081CB
:108ED000023B012BF8D890F84D31D0F89C20424D40
:108EE00063F07F031370D0F8A03000F110085F1C0E
:108EF0000FCDEC46ACE80F00D4F89C30CDE900373C
:108F00000FCDACE80F0095E803008CE8030069463C
:108F1000404610F0DDFE23695A6A12B190452ED00A
:108F2000FEE71A6A002AFCD173885BBAA4F8D03035
:108F3000B3885BBAA4F8D230F38801205BBAA4F8F6
:108F4000D4300AB0BDE8F08190F84C2190F84D3152
:108F50009B1A5B100133DBB206EB430236F8133089
:108F60005BBAA0F8D03053885BBAA0F8D2309388AF
:108F70005BBAA0F8D43001200AB0BDE8F0811A6ACB
:108F8000002AD1D01A6A002AF9D1CDE703691A7BE9
:108F90002AB35B691BB390F8983003B390F84C3157
:108FA000D0F89C20C4F8A40063F07F03137090F8FD
:108FB0004C1190F84D31D0F8A0200C48C4F80401B1
:108FC0005B1A07330121C4F8FC30D4F89C3084F8D4
:108FD00000110A44C4E93D3284F8DC1074E702232E
:108FE00084F8DC3070E700BF048B05088D80000832
:108FF0002DE9F041AB4C94F82236012B94B000F0EF
:109000009D81022B00F03D81002B00F05781A64D81
:1090100095F8C8305B060DF10E060DF10F0804A996
:1090200004F2246740F138814FF4F073A5F8CA3098
:109030000023CDE90833CDE90A3305930D930123CD
:1090400085F8CC308DF81C308DF83030974BC4F853
:10905000BC3603F10213C4F8C03603F10213C4F89E
:10906000C43603F10213C4F8C83603F10213C4F87E
:10907000CC3603F102138E48C4F8D03603F1021344
:10908000C4F8D43603F102130490C4F8D8369838E3
:1090900020230693019110F01BFED4F82436019989
:1090A0005A6A002A2FD0BA4200D0FEE71A6A002A74
:1090B000FCD100238DF80E3005938DF81C300893F9
:1090C0000A930D9310931293012306930B938DF83B
:1090D00030308DF8443095F8C8308DF80F300022CC
:1090E000002374480191CDE90E230496CDF8248025
:1090F00010F0EEFDD4F8243601995A6A002A37D0D0
:10910000BA4207D0FEE71A6A002AD2D01A6A002AA9
:10911000F9D1CEE71A6A002AFCD1002305938DF815
:109120001C3008930A930D93109312930123069316
:109130000B938DF830308DF8443094F8DC368DF890
:109140000F30022300228DF80E305A48019100237F
:10915000CDE90E230496CDF8248010F0B9FDD4F8A3
:10916000243601995A6A002A37D0BA4207D0FEE75E
:109170001A6A002AD1D01A6A002AF9D1CDE71A6AF0
:10918000002AFCD1002305938DF81C3008930A9324
:109190000D9310931293012306930B938DF83030A7
:1091A0008DF8443094F8DD368DF80F30032300221B
:1091B0008DF80E303F4801910023CDE90E2304962F
:1091C000CDF8248010F084FDD4F8243601995A6A31
:1091D000002A3CD0BA4207D0FEE71A6A002AD1D052
:1091E0001A6A002AF9D1CDE71A6A002AFCD194F84C
:1091F000DE36002B53D0012B00F0B380032B14BFBD
:10920000C723F7238DF80F30002305938DF81C300A
:1092100008930A930D9310931293012300228DF863
:109220000E3006930B938DF830308DF84430214882
:1092300004960023CDE90E23CDF8248010F048FDDC
:10924000D4F824365A6AAAB1BA4207D0FEE71A6A9D
:10925000002ACCD01A6A002AF9D1C8E71A6A002A73
:10926000FCD1B5F8CA201448002114B0BDE8F04183
:109270004FF0CDBB1A6A002AF3D01A6A002AF9D13E
:10928000EFE7094D082385F8C8300DF10E060DF102
:109290000F0804A904F224674FF4C373C6E64723FA
:1092A000B0E700BFF0180020880100201001110174
:1092B000AC1F0020141F0020D01F00200122A0217D
:1092C0000DF10E0604F22467CDE90463CDE90833FD
:1092D0008DF80E10069204A98DF81C300B928DF8B3
:1092E00030208DF844200D930022109312930DF13D
:1092F0000F0800233846CDE90E230191CDF82880D0
:1093000010F0E6FCD4F8243601995A6A12B1BA4238
:1093100020D0FEE71A6A002AFCD19DF80F30144DC8
:1093200003F00602022A03D003F00503012B1AD032
:10933000082385F8C8304FF4C37377E60C4D4823F3
:1093400085F8C8300DF10E060DF10F0804A904F2DE
:10935000246769E61A6A002ADFD01A6A002AF9D15E
:10936000DBE787234EE7482385F8C8305CE600BF7B
:1093700088010020F0B511F0010583B00AD190F802
:109380002860012E044607D0C368B3F1807F01D95D
:109390000123237703B0F0BD0A4B476AD3F8C00816
:1093A00010F0F6FBE368B880B3F1807FF2D9B72103
:1093B0008DF80410267733462A46384601A910F066
:1093C0004FFDE7E7F01800202DE9F043044695B083
:1093D000406A334D0E469146984610F0CBFB314B18
:1093E0000193314B049305F1D8030093217F0223AD
:1093F000029305F1D002012300278DF80C3005926D
:109400000697002935D08DF834308DF84830CDE9F5
:109410000977330ECDE90E77CDE9107785F8D13095
:109420000523CDF82C908DF82070CDF8308013975F
:10943000D2350793330C1D4F2B70330A6B70AE700F
:10944000D7F8C008656A10F0A3FB637FA8802BBB28
:1094500005A9284610F03CFC606A10F08BFBD7F899
:10946000C80810F095FB636A9880404615B0BDE8C7
:10947000F0838DF834308DF848300423CDE909119C
:10948000CDE90E11CDE91011CDF82C908DF82010FA
:10949000CDF830801391D1350793CBE76946D8E7F3
:1094A00088010020B4210020A9890008F0180020BC
:1094B0002DE9F04112F08EFD1F4F204E05464FF072
:1094C00000087C68002C2ADD00231A4607EB0321E4
:1094D000013391F8F9109C4242EA0102F6D142EAC6
:1094E0000804E4B290467368C3F30803A3B9EFF32A
:1094F00011838BB914F078FD431BB3F5FA6F02DCCE
:10950000B8F1000FDDD124B10D4B93F8CC284F2AD0
:1095100009D02046BDE8F08112F02EFDECE744466C
:109520004FF00008DFE7B3F8D4280132A3F8D428BD
:109530002046BDE8F08100BF0400001000ED00E00F
:10954000F0180020BA4B1B780BB9012070472DE9A9
:10955000F04FB84DB849D5F8C825B84BA1FB021259
:109560005209A3FB023A4FEADA0A0AEB8A0AA2EB93
:109570004A0A85B0AE4A5FFA8AF3039302F5FD63A7
:1095800002F5A1670193002307EB8A0A02F58169BE
:109590009846A74BD3F8F038434540F31381D9F8E8
:1095A0001830D9F80460D3E93A34029312F012FD6E
:1095B000029B95F8CCC802904FEA860E95F8D80821
:1095C0000EF1085E04F180610EEB431E3939BCF1E7
:1095D0004F0F0EEB81110EEB801301D1A5F8D608C9
:1095E000994240F266811A68002A00F05A811A6C8A
:1095F000002A00F06C81D3F88020002A00F06981F5
:10960000D3F8C02003F58073002AE9D1A3EB0E0E36
:1096100099424FEAAE1E40F24C81A4EB0E0145295F
:109620004FF0000428BF452103EB81119B462046E3
:1096300026460DE01A6C002A40F0CC80D3F880203A
:10964000002A40F0F280D3F8C02003F580732AB9D5
:10965000994206D91A68002AECD04033994200F2A8
:10966000BD80112E344640F22881D6F1150200F15A
:1096700024817349029ED1F8DC309E45D5F8DC3850
:1096800038BFC1F8DCE0F11A002919DB03F5F42337
:1096900003F590739E4288BF029B694988BF0533DA
:1096A000C5F8DC38664BD3F8DC30052B86BF053BAC
:1096B000DBB2002385F8D8384FF0FF33C1F8DC3037
:1096C00042B100FA02F2C4F11404012000FA04F4D9
:1096D00044EA02005B4BC0F3C43203EB8202916F99
:1096E00000F01F0203EB8202926F42EA0131C0F3E5
:1096F000441203EB8202C0F3842003EB8000936FDB
:1097000041EA0311836F41EA032181EA112383EACD
:10971000131303F00F030F2B40F0B180B1F5803F1E
:1097200080F0AD80BCF14F0F4FEA111104D1B5F8B4
:10973000D0380133A5F8D0383D4AD2F8F037B1F52A
:10974000606F03F10103C2F8F03700F0D480019B91
:10975000998197F858300398834210D0DAF808209E
:109760003B689B1A3B60DAF830207B689B1A7B6071
:109770000023CAF80830CAF8303087F858003B6830
:1097800001333B60DAF808300133CAF808304FF68D
:10979000FF73994207D17B6801337B60DAF8303080
:1097A0000133CAF83030019B08F101081433B8F1D5
:1097B000080F07F15C070AF15C0A019309F120091F
:1097C0007FF4E7AE1A4A0123012082F8EE3805B093
:1097D000BDE8F08F803399427FF643AF5A469A1A1C
:1097E0009211541C184A82FB04B2A2EBE472012AC3
:1097F000B8BF0122904001241644013A04FA02F253
:1098000010431C4622680AB3226C002A63D0D4F8A5
:109810008020002A61D0D4F8C02004F58074B2B151
:10982000A142EFD89B46234612E7C03316E700BF9C
:1098300004000010F01800201F85EB51CDCCCCCCDB
:1098400088010020B48A0508565555554034A14278
:10985000E8D9E31A9B115A1C2F4B83FB02B3A3EBED
:10986000E273012BB8BF012398401E440122013B43
:1098700002FA03F3184323469B462346E8E6BCF16D
:109880004F0F2CD0254AD2F8F0370133C2F8F03709
:10989000224AD2F8EC370133C2F8EC374FF6FF71A9
:1098A00057E74033A3EB0E0E99424FEAAE1E3FF648
:1098B000B4AE10B1013885F8D808BCF14F0F7FF471
:1098C00072AFB5F8D2380133A5F8D2386BE78033E0
:1098D0009CE6C0339AE68034B9E7C034B7E7B5F800
:1098E000D0380E4A0133A5F8D038D2F8F03701331A
:1098F000C2F8F037CCE795F8E13403EB430305EB0E
:10990000C303434493F8F1340D2B7FF420AF019A45
:10991000802393771DE700BF56555555040000106E
:1099200010B504464EF098FB81B22046BDE81040C9
:10993000FEF722BE2DE9F0411E4B93F8E02493F888
:10994000E1349A422FD11C4F7D68002D12DD38463C
:10995000002410F8086BA046013416B1037E012BD9
:109960001CD002691368AC4243F0010300F580701B
:109970001360F1D112F02EFBD7F8F448002C0BDD68
:109980000E4A02EBC40411689388888908320343A5
:109990009BB294428B81F6D1BDE8F08180F8F080D3
:1099A000FEF78CFEDDE74AF011FE0028CBD1BDE8C2
:1099B000F08100BFF018002004000010FC08001027
:1099C00010B57D4C94F8E02494F8E1349A4240F0CC
:1099D00099817A4B93F81829002A00F0EC8093F8CB
:1099E0001C39002B40F0EC80D4F8E018088820F0F7
:1099F00080000004000C0880B4F8E408C8620888FD
:109A000080B240F0800008804B62B1F80CC0B4F81E
:109A1000F40840EA0C0080B2012A8881A4F8F438E6
:109A200000F0C980D4F8F818088820F080000004FD
:109A3000000C0880B4F8FC08C862088880B240F0C6
:109A4000800008804B62B1F80CC0B4F80C0940EA01
:109A50000C0080B2022A8881A4F80C3900F0AB8097
:109A6000D4F81019088820F080000004000C088049
:109A7000B4F81409C862088880B240F080000880F9
:109A80004B62B1F80CC0B4F8240940EA0C0080B273
:109A9000032A8881A4F8243900F08D80D4F828198D
:109AA000088820F080000004000C0880B4F82C091D
:109AB000C862088880B240F0800008804B62B1F82C
:109AC0000CC0B4F83C0940EA0C0080B2042A88813A
:109AD000A4F83C396FD0D4F84019088820F08000F1
:109AE0000004000C0880B4F84409C862088880B2F9
:109AF00040F0800008804B62B1F80CC0B4F8540903
:109B000040EA0C0080B2052A8881A4F8543952D06A
:109B1000D4F85819088820F080000004000C088050
:109B2000B4F85C09C862088880B240F08000088000
:109B30004B62B1F80CC0B4F86C0940EA0C0080B27A
:109B4000062A8881A4F86C3935D0D4F870190888B1
:109B500020F080000004000C0880B4F87409C8628A
:109B6000088880B240F0800008804B62B1F80CC0D9
:109B7000B4F8840940EA0C0080B2072A8881A4F86E
:109B8000843918D0D4F88829B4F88C09118821F0C8
:109B900080010904090C1180D0621088B4F89C1966
:109BA00080B240F08000108053629089014389B2F6
:109BB0009181A4F89C3910BDF01800200400001019
:109BC000D4F8E838B4F8EC1859601968D4F8E0080B
:109BD00041F00101196040F20D33A0F8483081894D
:109BE00089B241F48071012A8181E4D0D4F800194E
:109BF000B4F804094860086840F001000860D4F82F
:109C0000F808A0F84830818989B241F48071022AAD
:109C10008181D0D0D4F81819B4F81C0948600868BC
:109C200040F001000860D4F81009A0F8483081899C
:109C300089B241F48071032A8181BCD0D4F83019F3
:109C4000B4F834094860086840F001000860D4F8AE
:109C50002809A0F84830818989B241F48071042A2A
:109C60008181A8D0D4F84819B4F84C094860086834
:109C700040F001000860D4F84009A0F8483081891C
:109C800089B241F48071052A818194D0D4F8601999
:109C9000B4F864094860086840F001000860D4F82E
:109CA0005809A0F84830818989B241F48071062AA8
:109CB000818180D0D4F87819B4F87C0948600868AC
:109CC00040F001000860D4F87009A0F8483081899C
:109CD00089B241F48071072A81813FF46CAFD4F8D6
:109CE0009019B4F894294A600868D4F8882940F09B
:109CF00001000860A2F8483093899BB243F4807356
:109D0000938110BD4AF062FC00287FF462AE10BD62
:109D100070B5104ED6F8F038002B19DD06F58164C9
:109D2000002505E0D6F8F038AB4204F120040FDD41
:109D3000237F0135002BF5D0E0680028F2D0217D8B
:109D400010F024FED6F8F038AB4204F12004EFDC2A
:109D5000012070BD04000010F8B5037D85691F2B3C
:109D600004464DD90168A3F120024E68202090409E
:109D7000064234D010239340C860CB604B68D34078
:109D8000DE0700F18380EFF31183502282F3128803
:109D90002A6C1168C9075AD4516889B271B9D5E9DA
:109DA0000960864250D0AF690744D76073D9301A32
:109DB00080B25060AE62002185F86410116841F0F5
:109DC0000101DBB2116083F3118895F86430002B38
:109DD00044D1237D1F2B27D92168A3F120024C6891
:109DE00008209040044200D0C8604C68042000FA6B
:109DF00002F2224203D0203B00FA03F3CB60F8BD0D
:109E00000268202016689840064219460ED010219C
:109E10009940906091601168D940C807B3D501217D
:109E200001FA03F39360AEE722681946106808232D
:109E30008B40184200D093601068042303FA01F1AC
:109E40000142DCD09160F8BD012285F86420DBB2CC
:109E500083F3118895F86430002BBAD095F87C30E4
:109E6000002BB6D195F8710011F004FA2A6E93898F
:109E700023F008031B0401211B0C938185F87C103F
:109E80000028A6D0202110F081FDA2E7012303FACB
:109E900002F2CA6077E72E69301A80B25060A96278
:109EA00089E700BF2DE9F047037D02681F2B0446B8
:109EB00008D95068A3F120052021A940014206D10C
:109EC000BDE8F0871068202199400142F8D0BB49D5
:109ED000BB4E4968C6F8201996F81C19D4F818909A
:109EE000DFF8E482F1B98C2101FB0981D1F8880007
:109EF000D1F8007105683868B1F88CC020F0010015
:109F00003860A98989B221EA0C01A9813178E9B9BF
:109F10001F2B40F2B580A3F1200120238B40D3609A
:109F2000BDE8F0878C2101FB0981D1F888104869D0
:109F30000D68016821F001010160A98921F4807197
:109F40000904090CA98131780029E1D04FF08C0A6D
:109F50000AFB098ADAF80071384645F0AFFAD6F8FC
:109F6000283901228AF8D420002B00F0F5802A88B5
:109F70008C2303FB098392B242F080022A80B3F85B
:109F8000F4204FF0FF31E962002A7FD12A8CB3F828
:109F9000F610B3F8F800B3F8FCC022F00102120486
:109FA000120C2A84B3F8FA202B8B23F0F3031B0442
:109FB00040EA0C101B0C0343288C9BB22B8383B20A
:109FC00023F00A030B4343F001032B842B8B23F074
:109FD0000C031B041B0C2B832B8B9BB21A432A8371
:109FE0008C2303FB09830022D3F8AC00C3F8A42020
:109FF000D3F8982039680243D3F8B0000243D3F86D
:10A00000B4000243D3F8B8000243D3F8BC000243C3
:10A01000D3F8C0000243D3F8CC000243D3F8D000F9
:10A0200002436848084002433A60D3E93120796925
:10A03000024321F007010A437A61D3F8A8207A602D
:10A04000D3F89C20BA60D3F8A020FA60D3F800219E
:10A0500016215160116841F001011160D3F8882088
:10A06000B3F88C30126891890B439BB253499381AA
:10A070004B68C6F82439237D22681F2B3FF64BAF6F
:10A08000202101FA03F39360BDE8F087042A33D05E
:10A09000082A2A8C65D022F48052B3F8FC10B3F859
:10A0A000F800B3F8F6C01204120C2A84090341EA3E
:10A0B0000020A98BB5F820E0B3F8FA2045F6FF732D
:10A0C00003EA0E0343EA0C3340F6FF4C0CEA0101AD
:10A0D0009BB2014343F4805389B2A9832B84AB8B99
:10A0E00023F440631B041B0CAB83AB8B9BB243EA92
:10A0F00002239BB2AB8373E7298CB3F8F820B3F843
:10A10000FC00B3F8F6C021F010010904090C298401
:10A110001202B3F8FA1042EA0032288B2B8C9BB261
:10A1200023F0A00343EA0C1340F6FF4C0CEA0000B6
:10A130009BB2024343F0100392B22A832B842B8BF1
:10A1400023F440631B041B0C2B832B8B9BB243EA31
:10A1500001239BB22B8343E711F03CFFC6F828098B
:10A1600005E722F480721204120CB3F8F600B3F87B
:10A17000F810B3F8FCC02A84B3F8FA20AB8B23F0B4
:10A18000F3031B0441EA0C111B0C0B4399B22B8CFB
:10A19000A9839BB223F4206343EA00239BB243F4D8
:10A1A00080732B84AB8B23F00C031B041B0CAB8341
:10A1B000AB8B9BB21A43AA8312E700BF001000E0EA
:10A1C000040000103F801CF0F01800202DE9F04F33
:10A1D000DFF80CB19BF8004087B024B90124204679
:10A1E00007B0BDE8F08F3B4ED6F8C85511F0F2FE2F
:10A1F0009BF860390390002B00F0DE82364AA2FB08
:10A200000532364B5209A3FB0213DB0803EB830331
:10A21000A2EB4303DAB204920BF5A16202EB8303D3
:10A2200000930BF5FD63019206F1E0040293002711
:10A23000DBF82839039AD31A04D454F8082C934233
:10A24000C0F26A82234A54F858AC256ADAF80060F2
:10A250008C2303FB072393F8D430002B40F0968126
:10A26000284645F02BF91B4A8C2303FB07230022C9
:10A2700083F8D4209AF805100C2914D8DFE811F0DF
:10A280007801130013001300710113001300130071
:10A290007F011300130013000D00B38B23F4006340
:10A2A0001B041B0CB3832246304615F031FA9AF892
:10A2B00005300C2B1ED8DFE813F04B011D001D00EC
:10A2C0001D0042011D001D001D0039011D001D0063
:10A2D0001D001500F01800201F85EB51CDCCCCCC13
:10A2E00004000010B38B23F400631B041B0C43F425
:10A2F0000063B383019B54F8342C54F8101C5C3376
:10A300000193009B5C330093029B1433029354F837
:10A31000483C43F04003134354F8302C134354F8A3
:10A320002C2C134354F8282C134354F8242C134397
:10A3300054F8202C1343402244F83C2C54F8142C9D
:10A3400013432A6822F07E6222F45F3222F4707294
:10A350000B4313432B6054E907316A690B4322F026
:10A36000070213436B6154F8383C6B6054F8443C6B
:10A37000AB6054F8403CEB602B6843F010032B605B
:10A380009BF8603901379F4204F18C04FFF650AF0F
:10A39000012200218BF8EE28CBF82819002B3FF47E
:10A3A0001DAF9D4890F89010890700F1A081D0F86A
:10A3B0008810086849798A40018C92B289B221EAF2
:10A3C00002010184018C89B20A43012B02843FF40B
:10A3D00005AF914991F81C21970700F1A281D1F8AE
:10A3E000142110685479018C012289B2A24092B2E2
:10A3F00021EA02010184018C89B20A43022B028402
:10A400003FF4ECAE844991F8A821960700F1A281AF
:10A41000D1F8A02110685479018C012289B2A240A0
:10A4200092B221EA02010184018C89B20A43032B12
:10A4300002843FF4D3AE784991F83422950700F1B5
:10A440009281D1F82C2210685479018C012289B2B2
:10A45000A24092B221EA02010184018C89B20A432E
:10A46000042B02843FF4BAAE6B4991F8C0229407E2
:10A4700000F18281D1F8B82210685479018C012250
:10A4800089B2A24092B221EA02010184018C89B210
:10A490000A43052B02843FF4A1AE5F4991F84C2397
:10A4A000900700F17281D1F8442310685479018C2F
:10A4B000012289B2A24092B221EA02010184018CF8
:10A4C00089B20A43062B02843FF488AE524991F8C0
:10A4D000D823920700F16281D1F8D0231068547913
:10A4E000018C012289B2A24092B221EA02010184C8
:10A4F000018C89B20A43082B02847FF46FAE464A6E
:10A5000092F864349B0740F15281D2F85C24042312
:10A51000116850790A8C83409BB292B222EA0302FE
:10A520000A840A8C92B213430B8457E6B38B23F050
:10A5300008031B041B0C43F00803B383DAE6338BD8
:10A5400023F400631B041B0C43F400633383D1E644
:10A55000338B23F008031B041B0C43F008033383E5
:10A56000C8E6338B23F400631B041B0C33839AE689
:10A57000338B23F008031B041B0C338393E6B38B4C
:10A5800023F008031B041B0CB3838CE66B6834F8C0
:10A59000542C1FFA83F8B389C8F116089BB223EA3A
:10A5A0000203B8F1070FB3817FF65AAEDBF8F0373C
:10A5B0000133CBF8F037A36A05939E4600225EF87C
:10A5C00004CB0121914660461DE0DEF800C0B9F1E0
:10A5D000140FACEB000321DC13F1080048BF03F1BA
:10A5E0001700031109EB2019604603F1FF3C01310C
:10A5F00002FA03F3012202FA0CF2884542EA03024E
:10A600000EF1040E0AD38845DFD8C9F11503DEF830
:10A6100000004FF01509E8E7F0180020B9F1150F18
:10A620005CD16848C2F38423C2F3441100EB830376
:10A6300000EB8101D3F8F830D1F8F8101B0243EA9F
:10A64000011302F01F0100EB8101C2F3C43200EBE1
:10A650008202D1F8F810D2F8F8200B4343EA023313
:10A6600083EA132282EA121202F00F020F2A35D176
:10A67000C3F30F134FF6FF7293422FD0B3F5606F01
:10A6800058D0029A93810198049990F858208A42F0
:10A6900010D0009A91680268521A00990260096B02
:10A6A0004268521A0099426000228A600A63049943
:10A6B00080F85810019900980A6801320A6082688F
:10A6C000013282604FF6FF7293427FF4C9AD4B684E
:10A6D00001334B60036B01330363C1E5DBF8EC37F7
:10A6E0000133CBF8EC376FB14FF6FF73CBE7364A47
:10A6F000D2F8882010685479018C0422A24089B2D3
:10A7000092B25CE60599314858224EF01DF9DAF80C
:10A7100000604FF6FF73B6E70024204607B0BDE89F
:10A72000F08F294AD2F8142110685479018C042240
:10A7300089B25BE6244991F8E12402EB420201EB85
:10A74000C2023A4492F8F1240D2A9AD10299802249
:10A750008A7798E71C4AD2F8A02110685479018CB6
:10A76000042289B25BE6184AD2F82C221068547988
:10A77000018C042289B26BE6134AD2F8B822106821
:10A780005479018C042289B27BE60F4AD2F8442323
:10A7900010685479018C042289B28BE60A4AD2F8F7
:10A7A000D02310685479018C042289B29BE6064BB1
:10A7B000D3F85C240123ABE601228BF8EE28CBF81A
:10A7C00028390CE5B48A0508F01800209808001014
:10A7D000F8B590F871301C09013C052C0FD81B4EC0
:10A7E00006EB44020546B2F8780103F00F0340FA85
:10A7F00003F2D20703D595F87C70012F01D0012018
:10A80000F8BD07FA03F3013B184034444CF048FC10
:10A8100094F884210E4C104454F8302004EBC0040A
:10A820001069A3881840EBD0EB6E002285F87C20DD
:10A8300093F821202046022110F088FA2A6E93898D
:10A840009BB243F0080338469381F8BDB48A0508EB
:10A850009022002038B500224E2105460FF028FB3B
:10A860001524962013F0E4FDF52128460FF056FB41
:10A87000422807D0472807D0013C14F0FF04F0D14C
:10A88000204638BD0C24FBE70D24F9E72DE9F743FA
:10A89000064600F1100496480FF07AF9B08296F857
:10A8A000210144F23B33A6F84C31A0B30709013F24
:10A8B000052F00F00F0000F2F280DFF84C8208EB69
:10A8C0004703B3F8782142FA00F515F001050FD0DF
:10A8D000012303FA00F00138104047444CF0E0FB3C
:10A8E00097F88431834D184405EBC0052623EB808F
:10A8F0003146814B41F80C3F28464AF095F955B155
:10A90000AB88B3FA83F24FF00043D34003D07B49C6
:10A910000A6813430B6042F21F53A6F84C31002221
:10A92000762120460FF0C4FA00224E2120460FF077
:10A93000BFFA96F8D890724BB9F10C0F93F8A13C7E
:10A9400040F0AF80012B00F0BC80022B15BF062524
:10A9500003254FF4DC774FF4786714BF4FF01508E8
:10A960004FF03F080122762120460FF0A1FA42461F
:10A970000C2120460FF09CFA07F0FC020D21204626
:10A980000FF096FA2A0142EA17220E2120460FF014
:10A990008FFAB9F10C0F14BF4FF006084FF01508ED
:10A9A0004FF002024FF07601204615BF24274FF4E6
:10A9B000DC770A2506250FF07BFA4FEA48020321CF
:10A9C00020460FF075FA07F0BC02042120460FF074
:10A9D0006FFA2A0142EA1722052120460FF068FA91
:10A9E0000022762120460FF063FAFF2252212046F2
:10A9F0000FF05EFA0322142120460FF059FA0022CC
:10AA0000632120460FF054FA0822652120460FF0FA
:10AA10004FFAE42120460FF081FA00F0EF0040F0F9
:10AA20006002642120460FF043FACD2120460FF04A
:10AA300075FA00F03F0040F040024D2120460FF033
:10AA400037FA0F224E2120460FF032FA012013F080
:10AA5000EFFC96F8DB30002B45D096F8203101331F
:10AA600043F00103B3FA83F3C3F11F03032B3ADC72
:10AA7000244AD25C02F00F024F21204601920FF0CF
:10AA800017FA0F2013F0D4FC2046019A50210FF042
:10AA90000FFA0F2003B0BDE8F04313F0C9BC002546
:10AAA00026E7022B13D0032B17D0012B15BF0A2545
:10AAB00008252427902714BF4FF006084FF00C08F4
:10AAC00050E704254FF4C0674FF027084AE70625F2
:10AAD0004FF4DC774FF0150844E704254FF4AC67DA
:10AAE0004FF025083EE7002386F8DB300622C1E759
:10AAF00000366E0190220020E18B0008003C0140EE
:10AB0000F018002094020608B48A05082DE9F047E1
:10AB1000089F884615460021202204461E464DF017
:10AB200076FF4FB13B68E3811B0C23827B687A89F7
:10AB3000E3821B0C6282238340464BF003FEEB064C
:10AB400019D4431EB8B108EB000701E0013B12D352
:10AB500017F801CDBCF12E0FF8D1C01A421E032AFE
:10AB6000A8BF0322082B03F1010AA8BF08239146BE
:10AB7000C2441A4606E008280246C246A8BF082278
:10AB80004FF000094FF0203341462360636004F129
:10AB9000080720464DF0D8FE174B23815146BB7065
:10ABA0004A4638464DF0D0FE611EE31D11F801CF34
:10ABB000ACF1610EBEF1190F9CBFACF1200C81F815
:10ABC00000C08B42F2D1384604F10B0110F8013B72
:10ABD000A3F16102192A9CBF203B00F8013C884286
:10ABE000F4D118232373330CA382E572099B668387
:10ABF000E361BDE8F08700BF202020000A4608B5C9
:10AC0000054920B9054844F0E3FD034808BD044860
:10AC100044F0DEFD004808BDB425002068010608A8
:10AC20009001060810B5044C04480A46214644F039
:10AC3000CFFD204610BD00BFB4250020B801060896
:10AC400010B5044C04480A46214644F0C1FD204694
:10AC500010BD00BFB4250020CC01060810B5044C7F
:10AC600004480A46214644F0B3FD204610BD00BF0B
:10AC7000B4250020D80106082DE9F04FDFF88894AC
:10AC8000D9F8C805C9F8CC0587B0002B00F0DA80E8
:10AC900001F5FE781344DFF874B40393164601F10E
:10ACA0002007C24621E0002E64D0D9F8FC35B3421B
:10ACB00000F0CC80D9F8F835B34200F0FF80D9F825
:10ACC0000036D9F80416B3424BD8B14200F299814C
:10ACD000711A204648F0F2F8039B01369E4207F5B0
:10ACE00000770AF5007A00F0AD80D9F80856B54231
:10ACF000A7F12004D7D8751BD9F8188605F00702EC
:10AD0000EB080492D8F830200233934203D3D8F8EA
:10AD1000382093420BD941461846059348F09EF8D7
:10AD2000059B8046002800F08C81C9F8180698F829
:10AD30000420002A40F03481D8F82850002D00F07B
:10AD40007981D8F830209B1A049A02EBC303D8F813
:10AD50000C20204602EB43224FF400714346A847E3
:10AD6000BAE7B142B4D920464FF4007200214DF049
:10AD70004EFEB1E74FF40072314620464DF047FEDB
:10AD8000802387F89E310C2387F8A231D9F8F83553
:10AD9000D44AD9F8F015C4F8C6319342C4F8CA11A0
:10ADA00000F33481D04AD14C82FB03021A44D817F5
:10ADB000C0EB621284FB0254CD4D85FB03C5C0EB92
:10ADC0002530C2EB821587F8A1015B1B801020F0B3
:10ADD0003F0001330343144487F8A031D317C3EB7A
:10ADE000E4142244BF4B87F89F214A1E9A4200F385
:10ADF0001981BD4BBD4883FB02311144D317C3EB0E
:10AE0000611180FB0140BA4C84FB0254C3EB243334
:10AE1000C1EB811487F8A531121B9B1023F03F036F
:10AE200001321343084487F8A431CB17C3EBE01079
:10AE3000014487F8A311552387F8DE31AA2387F848
:10AE4000DF3149E7002007B0BDE8F08F4FF0FF3356
:10AE500084F8EC3184F8ED3184F8EE3184F8EF3188
:10AE6000D9F81036C4F8E831522323706370612397
:10AE7000A37084F8E73141230025E37084F8E631BC
:10AE8000722384F8E43184F8E5314FF4F0722946F6
:10AE9000A7F11C004DF0BBFD5523C7F8D051C7F8F2
:10AEA000D451C7F8D85184F8FE316FF0550384F8B7
:10AEB000FC5184F8FD5184F8FF310DE700214FF477
:10AEC000007220464DF0A3FD8A4A03CA47F81D0CC4
:10AED000EB2007F8200C582007F81F0C902047F8AB
:10AEE000191C07F81E0C002302220821F820E37227
:10AEF000227307F8131CA273E37307F8102C07F8EA
:10AF00000B0CD9F8F80584F82C20D9F8F0256376D5
:10AF1000121A2262D9F80006D9F80426E376121A2A
:10AF20003F2020764FF0FF30A0763E202077012092
:10AF30006377A377E37784F82D3084F82E3084F894
:10AF40002F30626284F8300084F8313087F82610A0
:10AF5000802187F82010292187F82210942187F872
:10AF600023100E2187F824100D21634A87F825103D
:10AF7000552187F8DE11AA2187F8DF1103CA5F4B3C
:10AF8000C7F82700C7F82B1003CB1388A7F82F307A
:10AF90009378C7F83200C7F8361087F831309BE64F
:10AFA0004FF40072002120464DF031FD049B002B30
:10AFB0004ED1D8F84030002B00F0AA80049AD8F87F
:10AFC00030304F49CDE9002220461122FFF79EFD87
:10AFD000D8F840301A6C002A00F0AD80049A1B6B40
:10AFE000CDE90022474911223846FFF78FFDD8F8F6
:10AFF000448007F120044FF4E075B8F1000F3FD111
:10B000006AE6F11A204647F059FF65E6FF2387F804
:10B010009F3187F8A13187F8A031324B4A1E9A42FE
:10B020007FF7E7AEFF2387F8A33187F8A53187F8CC
:10B03000A43100E7294620464FF400724DF0E7FCAA
:10B040004AE6A7F1240343F804BF9A45FBD143E63F
:10B05000D8F84030049AD8F84480002B0CBF012364
:10B060000223C3EB02154346002B3FF435AE013DEE
:10B070009B6CF9D198464FF40075002B3FF42CAE31
:10B0800025442034234620354446049698460EE055
:10B090005CF81C1B236BCDF800C000260196FFF75F
:10B0A00035FDA46C08F12008CCB1A84517D0237950
:10B0B000A44604F11C0E1122A8F12000002BE7D1B8
:10B0C00062792669236B216842F02102CDE900E60E
:10B0D000FFF71CFDA46C08F12008002CE5D1049EAC
:10B0E000FAE500BFFF03FB00832008828180808097
:10B0F00097554541F0010608FC01060808020608BC
:10B10000E8010608EC010608F0180020DEADBEEFED
:10B11000049BD9F8F415CDE9003320460822FFF747
:10B12000F5FCD8F84480B8F1000F3FF4D5AD3C46AB
:10B130004FF4F075A4E7049BCDE9003352E700BF5C
:10B14000BFF34F8F0549064BCA6802F4E062134310
:10B15000CB60BFF34F8F00BFFDE700BF00ED00E005
:10B160000400FA051648174A174938B5174C184D08
:10B17000121A4DF0E9FBD4F88820164B164842F419
:10B180007002C4F888201A68002142F001021A6097
:10B1900099601A6822F0847222F480321A60586032
:10B1A0001A6822F480221A600C4AD960521B284681
:10B1B0000B494DF0C9FBA560BDE83840FCF720BF46
:10B1C00000000010040000107DAC060800ED00E057
:10B1D00000000020003802401030002488010020C8
:10B1E00000000008F8B5CB7813B900252846F8BD53
:10B1F00000F110070C460646897838460EF0FEFC32
:10B2000005460028F1D0E07810F034F8B0612378DA
:10B210000133DBB210B1C3712223837109210FF016
:10B2200011FAB0690EF0E4FC0C4AD2F8C835632B71
:10B23000FBD90B480EF0ACFCB0823846FFF70AFB96
:10B24000074620B9E07810F075F83D46CEE7306942
:10B2500086F8D8704BF060F8C8E700BFF0180020FF
:10B2600040420F0043680B4A23F0407323F480737D
:10B2700043F48073436083681A4042F002028260A4
:10B28000C36A0139CAB223F4700141EA0251C162B2
:10B29000704700BFFDF7FFC0704700BF0020FCF7FC
:10B2A00007BF00BF0120FCF703BF00BF0220FCF76F
:10B2B000FFBE00BF431C00F038812DE9F04FDFF8DE
:10B2C00098A300EB80030AEBC30287B0D2F8048096
:10B2D000810005460191DB00B8F1000F04D0D4686D
:10B2E000002C4CD0A17911B107B0BDE8F08FD2F895
:10B2F0001090B9F1000F00F0478199F80620002A5C
:10B30000F2D118330AF10406F018D8F80470F2509C
:10B31000691CC0E901221523C260C9B2A3711623BA
:10B32000E17189F8063089F8071098F8180049F09B
:10B33000E5F9BB88A28823F440731B041B0CBB8077
:10B3400023681A83D9F80030B9F804201A83112130
:10B3500020460FF077F9112148460FF073F90926BE
:10B360004FF0330B24B12268A188106901422DD11E
:10B37000BBF1010B00F0D38049F0FAFBF2E7D2F801
:10B380001090B9F1000F00F0E88099F80620002A2B
:10B39000AAD118330AF10401CA18D8F80470CC50A5
:10B3A000C2E901441623D46089F806306B1C89F881
:10B3B000073098F8180049F0A1F9BB8823F44073CE
:10B3C0001B041B0CBB80BDE72268A188518349F098
:10B3D00073FB2368A2881A8349F06EFB013EBFD13C
:10B3E000002C00F0EF802368A2885A8349F064FBA8
:10B3F000B9F1000F00F00B81D9F80030B9F8042042
:10B400005A8349F059FB2368A2881A8349F054FBF8
:10B41000D9F80030B9F804201A83019B20465C1942
:10B420000AEBC404A37D227D002B14BF322112211C
:10B430000EF0C4F9A37D627D002B14BF32211221CE
:10B4400048460EF0BBF97E4B9F4200F0CA807D4B10
:10B450009F4200F0D1807C4B9F4200F0E080019B36
:10B460002B440AEBC30A4FF47A73BAF8184003FB73
:10B4700004F4BB8823F440731B041B0CBB803B8883
:10B480009BB243F001033B80BD8802A843F096FEC7
:10B4900025F03F0504986D4B2D04A3FB00232D0CD4
:10B4A00045EA9345BD803A8822F001021204120C4D
:10B4B0003A80674A990C94420B4637DC6200B0FB35
:10B4C000F2F292B20133042A38BF04223B84BA83D9
:10B4D0003B889BB243F001033B803B8823F48163AC
:10B4E00023F002031B041B0C4FF4804143F48063E0
:10B4F0003B8039813B8823F080031B041B0C002216
:10B500003B8098F81A00114647F04EFF002298F849
:10B510001900114607B0BDE8F04F47F045BF002CB9
:10B520007FF452AF49F0C8FA56E7704704EB440481
:10B53000B0FBF4F082B2C0F30B0008B942F0010294
:10B540004FF4967301FB03F34249A1FB03139B09DC
:10B55000013342F400423B84B9E718330AF1040195
:10B56000CA18D8F8047041F80390C2E90199C2F8EA
:10B570000C9098F8180049F0C1F8BB8823F4407388
:10B580001B041B0CBB80E2E618330AF10401CA1845
:10B59000D8F8047041F80390C2E901991523C2F864
:10B5A0000C90A3716B1CE37198F8180049F0A6F891
:10B5B000BB88A28823F440731B041B0CBB80236848
:10B5C0001A83C4E649F078FAB9F1000F32D0D9F8FD
:10B5D0000030B9F804205A8349F06EFA49F06CFA49
:10B5E00016E703F5F2331A6A42F400121A621A6A75
:10B5F00022F400121A6232E703F5F0331A6A42F4B9
:10B6000080021A621A6A22F480021A6227E749F05D
:10B6100053FA2368A2881A8349F04EFAFDE603F52F
:10B62000EE331A6A42F400021A621A6A22F4000225
:10B630001A6214E749F040FA49F03EFAEDE600BF1D
:10B640000054004000580040005C004083DE1B4373
:10B65000A0860100D34D6210F01800202DE9F843B8
:10B66000074610F089FCDFF84C8007EB8709044699
:10B6700008EBC90542F20F7604E010F07DFC031BD5
:10B68000B3420ADC6B7F002BF7D108EBC90898F8AE
:10B690001C0080F00100BDE8F883B8F8C43D013318
:10B6A00038469BB2A8F8C43DFFF704FE0020BDE871
:10B6B000F88300BFF018002070B5284D00EB800320
:10B6C00005EBC30384B05A685468A28A92B203920D
:10B6D000039A12F4706F1CBF01221A77039B13F4B4
:10B6E000E06F4FEA80060CD1A38A304423F47063E4
:10B6F00005EBC0051B041B0C0022A3826A7704B073
:10B7000070BD238BA38823F480631B041B0CA380D0
:10B71000039B9A05E8D423889B05E5D42388D905A3
:10B720000FD52388DA05FCD423889BB243F4007339
:10B73000238023889B05FCD40190FFF7BBFD019873
:10B74000D2E723889BB243F400732380A38823F4B9
:10B7500040731B041B0CA380C6E700BFF018002039
:10B760000020A9E70120A7E70220A5E72DE9F84F6F
:10B77000304F00EB800407EBC404D4F80880B8F124
:10B78000000F04D09A46637F03F0FF0923B14FF006
:10B7900000094846BDE8F88F0E469346054610F06E
:10B7A000EBFB0A9B7600F6B2C4E909330123A677C6
:10B7B00084F81FB084F8219084F8223084F820A007
:10B7C000637784F81C90B8F804209105064622D4CB
:10B7D000B8F80030DA0512D442F20F7404E010F029
:10B7E000CBFB831BA3421ADCB8F800309B05F6D4D0
:10B7F000B8F800309BB243F48073A8F80030B8F872
:10B8000004309BB24FF0010943F44073A8F80430B0
:10B810004846BDE8F88F99464846BDE8F88FB7F826
:10B82000C43D01339BB22846A7F8C43DFFF742FD53
:10B83000AFE700BFF018002010B503681C78012C9A
:10B8400082B00AD0022C05D15A6A0AB1904201D1C5
:10B850001B6A03B3012002B010BD93F904C0124962
:10B860000CEB8C0301EBC3035B7F03F0FF0213B10E
:10B87000002002B010BDBCF1FF3FEBD0BCF1020FC5
:10B8800010DC01F5A9630179009360460623FFF7F8
:10B890006DFF2046DFE7054A062380210EF04EFAB1
:10B8A0000120D8E72046D6E7F0180020381E0020F7
:10B8B000F8B5774C04EB0016D6F8C83D002B00F025
:10B8C00094800546070196F8D00D48F017FF96F8CA
:10B8D000D03D590903F01F0203294FF0010303FA79
:10B8E00002F300F09880042900F0858002297DD0C1
:10B8F000E319013593F8CC0D0FF0BCFCEDB2064610
:10B9000010B112238371C571E31993F8CD0D0FF0B7
:10B91000B1FC10B11323C5718371E31993F8CE0DF7
:10B920000FF0A8FC10B11423C57183713C444A2167
:10B9300094F8CF2D30460DF041FF94F8CD0D0FF067
:10B9400099FC94F8CF2D2A210DF038FF94F8CE0DF4
:10B950000FF090FC94F8CF2D0A210DF02FFFD4F8B2
:10B96000C82D4C4B9A425BD04B4B9A4248D04B4B24
:10B970009A4260D04A4B9A4268D04A4B9A4270D061
:10B98000494B9A4278D049499088B1F8E240B1F8E1
:10B99000E030B1F8EA502343B1F8E4402343B1F872
:10B9A000E64020F003002343B1F8E8400004000C17
:10B9B0002343B1F8EC4090802B4310882343B1F827
:10B9C000EE40B1F8F01000F44150234303439BB222
:10B9D0001380938B23F400631B041B0C938311824D
:10B9E00013889BB243F040031380F8BD304A516A7C
:10B9F0000B4353627CE72E4A11690B43136177E7CF
:10BA000003F50033196A41F480411962196A21F47F
:10BA100080411962B7E7264A116A0B43136267E750
:10BA200003F58433596A41F480515962596A21F40B
:10BA300080515962A7E703F5FE33196A41F40041CA
:10BA40001962196A21F4004119629CE703F58233F7
:10BA5000596A41F400515962596A21F400515962FE
:10BA600091E703F56843596A41F480115962596AB4
:10BA700021F48011596286E703F56443596A41F461
:10BA800000115962596A21F4001159627BE700BF25
:10BA9000F01800200030014000380040003C004019
:10BAA0000034014000500140005401408801002052
:10BAB0000038024010B404698269E4684168146087
:10BAC0004024D460446900230C31C2E90433C2E944
:10BAD0000633C2E90833C2E90A33C2E90C33936082
:10BAE0009363516084B1C269E0689363C2E9023331
:10BAF000C2E90433C2E90633C2E90833C2E90A33B2
:10BB0000C2E90C33C2E900015DF8044B704700BF85
:10BB1000436800221A60037D1F2B08D9203B202296
:10BB2000016802FA03F343F01803CB607047202248
:10BB3000016802FA03F343F018038B60704700BFFB
:10BB40000268136A11B1D96901B3143330B49C6827
:10BB50001D689169DDB14FF4806088618D60104689
:10BB600040690C6180B15968D369C9B10A464FF484
:10BB700080619A609961224312F0010F14BF002284
:10BB80004FF400521A621C6130BC704770478D61DF
:10BB9000054D4FF0FF0C05F8F2CF00688D60DFE730
:10BBA000024A9A609961E6E788010020E8260020B1
:10BBB0000168F8B5D1E9042304465568002B49D043
:10BBC0009861107D5E681F2831D81768202202FA1C
:10BBD00000F040F01800B8601A7D1F2A32D91868AA
:10BBE000203A202303FA02F242F01802C260002336
:10BBF0002B6033603368896943F010033360284653
:10BC000043F0F2FC23683046D96943F0EDFC2B6821
:10BC1000226843F001032B603368526843F001034C
:10BC2000336093889BB243F003039380F8BD176899
:10BC30002038202202FA00F040F01800F8601A7D47
:10BC40001F2ACCD81868202303FA02F242F0180207
:10BC50008260CCE7137D90611F2B1CD810682022D6
:10BC600002FA03F343F01803836000232B602B6870
:10BC7000896943F010032B60284643F0B5FC2B681C
:10BC8000226843F0010352682B6093889BB243F013
:10BC900002039380F8BD1068203B202202FA03F3D0
:10BCA00043F01803C360E0E72DE9F843DFF80092A2
:10BCB0007D4F0646356896F888806B68B08801220B
:10BCC00085F828201A8822F040021204120C1A80EB
:10BCD0002A89824223D0198821F0380109044B4572
:10BCE0004FEA114100F0BC80704A934200F0B880E6
:10BCF0000246B2F5807FA8BF4FF48072022AB8BF17
:10BD00000222002A92FAA2F2B2FA82F208BF4FF09F
:10BD1000FF32013A41EAC20292B21A802881317B95
:10BD2000AA7A8A420CD01A8822F003021204120C5A
:10BD30001A801A8892B2002900F08F801A80A972A6
:10BD40001A8892B242F040021A802A6A9168002949
:10BD500000F0A0804FF0000C1432E64652F8100CB0
:10BD60008E4400EA070120B1B1F1805F23D06969F8
:10BD700009B352F8140C143200EA070110B1B1F102
:10BD8000805F18D052F80C1C0CF1010C0029E5D191
:10BD90002A7B82B1B8F1000F0DD0BCF1010F6CD835
:10BDA000BEF1070F69D80CEB8C0189002A6A114497
:10BDB0000A7B002A61D02A6A9268002A52D00022A7
:10BDC0000AB1127B22B1B26812B1116892884A831B
:10BDD0002A6A14682A6A51682A6A9268501E9AB1BF
:10BDE0002CB3224612F801CB14461A899207FCD5CF
:10BDF000A3F80CC01A89D207FCD59A8992B209B16E
:10BE000001F8012B0138EBD22B6A1B7BF3B92B6AAB
:10BE10001B6993B12B6AD6F894001B6998470128D7
:10BE200008D0022809D100232B62BDE8F8834FF027
:10BE3000FF0CDAE72B6A143B2B622A6A2B6A143355
:10BE40002B622B6A9B686BB16B68B9E7B368002BF8
:10BE5000DDD01A689B881383D9E742F003026DE7AF
:10BE6000420846E72B6A1B68DBB12B6AD3E9006204
:10BE70002A620022C3E900221CE700213046FFF7B6
:10BE80005FFEB36813B11A689B8853833046BDE8E0
:10BE9000F8438DE62A7B002A8DD0B8F1000F85D1BA
:10BEA00089E72B62C1E700BF0000FFFF003C0040B4
:10BEB000003800400348D0F804310BB1F430184783
:10BEC000704700BF880100200348D0F8283113B123
:10BED00000F58C7018477047880100200348D0F89F
:10BEE0004C3113B100F59E7018477047880100204F
:10BEF0000348D0F8703113B100F5B070184770479F
:10BF0000880100200348D0F8943113B100F5C270C5
:10BF100018477047880100200348D0F8B83113B1A2
:10BF200000F5D47018477047880100200348D0F806
:10BF3000DC3113B100F5E670184770478801002026
:10BF40000348D0F8003213B100F5F8701847704775
:10BF5000880100200348D0F8243213B100F50570A1
:10BF600018477047880100200348D0F8483213B1C1
:10BF700000F50E7018477047880100200348D0F87C
:10BF80006C3213B100F51770184770478801002014
:10BF90000348D0F8903213B100F52070184770476D
:10BFA000880100200348D0F8B43213B100F529709D
:10BFB00018477047880100200348D0F8D83213B1E1
:10BFC00000F5327018477047880100200348D0F808
:10BFD000FC3213B100F53B70184770478801002010
:10BFE0000348D0F8203313B100F544701847704768
:10BFF00088010020094B0A4A013800EBC00003EB1E
:10C000008000116BD0F8F430064883420CBF4FF427
:10C0100000134FF480030B43136370478801002023
:10C02000003802400060024070B501383C4C3D4D84
:10C0300000EBC00C04EB8C0C9646DCF8F4603A4A3A
:10C04000AE420CBF4FF400154FF48005166B35431C
:10C050001563CCF80411CCF80C313449DCF8F83015
:10C060008B424FEAC0023ED001F580618B423AD04C
:10C07000A1F57A718B4247D001F580618B4243D0A4
:10C08000A1F57A718B4241D001F580618B423DD0A0
:10C09000A1F57A718B4235D001F580618B4231D0A8
:10C0A000A1F57A718B4233D001F580618B422FD09C
:10C0B000A1F57A718B422DD001F580618B4229D098
:10C0C000A1F57A718B4227D001F580618B4223D094
:10C0D000A1F57A718B4221D0154D01F580618B421B
:10C0E00018BF002500E0134D104404EB8003CEF38D
:10C0F0008711C3F8145193F80901BDE8704000227C
:10C1000047F052B90C4DEFE70C4DEDE70C4DEBE766
:10C110000C4DE9E70C4DE7E70C4DE5E7044DE3E78F
:10C120008801002000600240003802401060024098
:10C130000080002820800010008000180088001077
:10C140000080201020800020008800200080202017
:10C150002DE9F04FA24BDFF8A89293F80E3EA14FC5
:10C160008DB0CDE90139013BDBB200939E4B002538
:10C17000A3F2D466DFF88CB2DFF88CA25B46D3461C
:10C180009A464FEA9A23A3F58013522B4CD8334496
:10C1900093F88C310D2B47D8FC56019B012B40F0B6
:10C1A000FE80012C35D14FF000084146204612F0A8
:10C1B00051FE12F0EFFE037813B1542B40F00981C9
:10C1C00008F104081FFA88F8B8F1100FEDD14FF00C
:10C1D000000E8DB3494600200CE0334493F88C31B7
:10C1E0000D2B0ED8FB56A3420ED00130A84201F50C
:10C1F00080711EDA8A6813689B0AA3F58013522B9C
:10C20000EBD90023A342F0D153799BF805209A4241
:10C21000EBD1754B9B454BD05BF820AF4FEA9A238F
:10C22000A3F58013522BB2D9009B012BF1D9002426
:10C23000B9E7BEF1000FECD158460EF0E9F8C3B2F1
:10C24000022B9BF805C000F23C83431C5BB203EB5E
:10C2500043034FEA830E654B654903F5727004E0B2
:10C26000834200F02E8353F82C1F5145F8D11A79E0
:10C270006245F5D153F80E40002CF1D05D48002303
:10C280004268A24203F1010300F08680102B00F106
:10C290002400F5D14FF0FF33574A03EBC30302EB01
:10C2A000830393F81031002BB3D1029BC3F808B07D
:10C2B000029B013503F58073042D02937FF45AAF7E
:10C2C000DFF848A10AF29C534FF0010800934B4B52
:10C2D000D3F8F02808F1FF339A425ADDDAF80C500F
:10C2E000002D00F0EA822968AE8801F13F41B6FADC
:10C2F00086F601F57E01C6F11F06890A3F4B5F688D
:10C30000002F40F38780002302E00133BB427FD03F
:10C310001C0259F804208A42F7D14C44CAF8046040
:10C32000CAF818405FFA88F315B1EB710323AB71BB
:10C33000636CE16C7200032090400343636401234B
:10C3400003FA02F20A43E2642C4A127872B3226DB5
:10C35000B3401A43226515B12A68A9881183D4F81D
:10C36000A00099B20122FCF753F82046FCF7A6F989
:10C37000009A012308F101088AF81C308AF81D3060
:10C380005374B8F1090F02F118030AF1200A00935F
:10C390009DD10DB0BDE8F08FDBB2013B7CE7022BF5
:10C3A0007FF401AF082C3FF4FEAE32E7226D06F1B8
:10C3B00010018B401343236515B12B68AA885A835B
:10C3C0000121B140D4F8A00089B20022FCF720F886
:10C3D000CBE74FF0010E002D7FF4FCAE19E700BF54
:10C3E000F01800209C02060888910508948C050826
:10C3F000000001407C0200208801002004000010A1
:10C400000C00001000040140889005080C04001086
:10C41000032B61DCA64B03EB07233A021869019258
:10C42000002800F0438299600131CAB283F80521E7
:10C4300002929F4AD0F800B001375760542283F827
:10C44000042144790DF0E4FF9A4AC3B292F823CE56
:10C450009AF810200392022B00F23382471C7FB21D
:10C4600007EB4707944A9549BF00002305E00133D5
:10C47000172B00F0268252F82C1F8B45F7D111792B
:10C48000A142F4D1D1590029F1D02C2200EB400077
:10C4900002FB03F38A4A03EB800313440198D3F8A9
:10C4A000F021834B0344C3E90612864B00221F464A
:10C4B00018464368994220D00132102A00F1240026
:10C4C000F7D1814B93F8EC2052B9542283F8EC2039
:10C4D000029A83F8ED2003E0764A032382F8223E95
:10C4E00073487A497A4A7B4BC0F88C19C0F8842982
:10C4F000C0F894390DB0BDE8F08F531CDBB2724A1E
:10C500000597013B03EBC30302EB830393F8102170
:10C510000492002AE4D1019F029A83F81121FA11B2
:10C520006D4802EB2722542402EB021200EB820238
:10C530008C2183F8104169482C683B1201FB03F3FE
:10C5400000EB43005A4B3B44C3E93C01C3F8A8202D
:10C550003322DC60C3F8AC20614B9B4509EB070438
:10C5600018D0564B9B4515D003F580439B4511D001
:10C5700003F580639B450DD003F580639B4509D08F
:10C580004C4B1A68BCF1060F4FEA520207D15549CD
:10C59000554B0EE0474BBCF1060F1A68F7D0534BD2
:10C5A00053485449BCF1070F08BF1946524B08BF06
:10C5B0000346B2FBF3F33E4FB2FBF1F2019958464A
:10C5C000013B07EB010B9BB2013AABF8B020ABF893
:10C5D00068305431A36500234944A4F85C30636596
:10C5E00042F01EFFDBF810B04449DBF8000002887F
:10C5F00092B242F0800202800023ADF8203003881E
:10C6000007914FF48072022123F00103CDE90A1251
:10C610001B044FF00A0C1B0CCDF824C003809BF8C0
:10C62000051007AA13F074F89BF80400002840F0E6
:10C6300025811F4B019A059F9A1800231069D2F893
:10C6400018C001680A8892B242F001020A807A6832
:10C65000944503F1010300F00D81102B07F124072D
:10C66000F5D14FF0FF33184A254FDFF89CC003EB9C
:10C67000C30302EB8303234AD3F8F430BB420CBF5D
:10C680004FF400134FF48003176B3B43136343795C
:10C690000C2B9CBF0A4A02EB4303019A98BFB3F8E4
:10C6A000F476034B134488BF00279F82002334E0B5
:10C6B00004000010F0180020948C050800000140D0
:10C6C000B48A05087C0200208801002069700108F6
:10C6D000657001087170010814270020442A0020A9
:10C6E00000040140882A1100A0BB0D001055220053
:10C6F00040771B0044950800D0DD06006000010073
:10C700000060024000380240FC080010914200F036
:10C71000D2800133042B00F0D7805CF83320002A4C
:10C72000F4D16B4A1046D2F8F4280132C0F8F4284C
:10C7300000EBC302DB00C2F8F818634404989A883F
:10C74000644917439F80624A019BD7182346902271
:10C75000FFF76AFCB8690268002342F01002026029
:10C76000C4E92533A367C4F88830C4F89C30FA695B
:10C7700062664FF400310422C4E923124FF4806B47
:10C780004021C4F87CB02167D7F8AC106167F96824
:10C79000019B1831A1664FF48051C4F88010D7F87E
:10C7A000A820E26603F164014FF480424944C4F8D2
:10C7B000842042F019FFB869019BD0F800E0C4F86A
:10C7C0001CE0D0F814E0C4F820E0D0F804E0C4F88D
:10C7D00024E003F1AC01D0F808E0C4F828E000231D
:10C7E000D0F80CE0C4F82CE0C4E93733C4F8B83012
:10C7F000C4F8C030C4F8D030C4F8E43004224FF498
:10C80000403CFB69C4F8AC30C4E935C2C4F8C4B0DC
:10C81000D7F8F430C4F8BC30FB681033C4F8B0303B
:10C820004FF40063C4F8C830D7F8F030C4F8B4301F
:10C830004FF480434944C4F8CC3042F0D5FEBA6985
:10C8400011682163516961635168A1639168E16373
:10C85000D1682164116841F010011160039A8AF8CF
:10C8600010205FFA88F3CAF80460CAF80C50CAF8BE
:10C8700018405AE5DBB20493013BF4E60EF0FAFCF3
:10C88000029038B19BF8082002210EF05FFA029B5B
:10C890005422DA80DBF80020B2F844306FEA4343D8
:10C8A0006FEA53439BB2A2F84430C2E60A4A02231D
:10C8B00082F8223E14E6DB003FE74FF0FF363146B8
:10C8C0001CE500235B68FFDE00239B88FFDE00BFC2
:10C8D0000400001059840008F0180020084B10B51F
:10C8E000D3F8BC3418440C46007E0EF0C3FC18B1DB
:10C8F000036882880CB11A8310BD5A83FCE700BF1D
:10C90000E82900200B4B10B5D3F8BC34034404468F
:10C91000187E0EF0AFFC58B12E228271621CC271DB
:10C9200001210DF08FFE20460021BDE81040D5E723
:10C9300010BD00BFE82900202DE9F04F8DB00E4654
:10C940009DF85840019403930546002800F0D080DC
:10C95000DFF8D0C1077900230CF5986402E0152BAD
:10C9600000F0C68003EB43010133605CB842F6D1AE
:10C9700061442F6891F9C28495F805E05FFA88F365
:10C98000022B00F2B58008F1010C4FFA8CFC0CEB85
:10C990004C0C604B4FEA8C0C002105E0013117294B
:10C9A00003F12C0300F0A48018688742F6D11879AF
:10C9B0007045F3D153F80C40002CEFD02C2303FB2F
:10C9C00001F108EB4808544BDFF85CB101EB88013A
:10C9D0001944D1F8F03105939BF81C390093002BD2
:10C9E00040F08B804D4FD7F8F830A34200F0E4823E
:10C9F000D7F81C319C4200F0CF84D7F84031A342D5
:10CA000000F0CC84D7F86431A34200F0C984D7F891
:10CA100088319C4200F0C684D7F8AC31A34200F0C4
:10CA20006584D7F8D031A34200F0BE84D7F8F43142
:10CA30009C4200F0BB84D7F81832A34200F0BB84BC
:10CA4000D7F83C32A34200F0C284D7F860329C424F
:10CA500000F0BB84D7F88432A34200F0BA84D7F840
:10CA6000A8329C4200F0BF84D7F8CC32A34200F039
:10CA7000C184D7F8F032A34200F0BA84D7F8143357
:10CA8000A34208BF0F2300F0988200234FF0FF3A23
:10CA90000693009B002B49D00AEBCA0207EB8202E7
:10CAA0004FEACA03079392F81031392B00F029831B
:10CAB000D5F800804FEA9822A2F58012522A00F29F
:10CAC0009C8215490A4492F88C210D2A00F2958225
:10CAD0001349895CCBB9079A524407EB820282F86A
:10CAE0001111392182F81011069A72B1009333E0C6
:10CAF000DFF834B09BF81C393BB1D5E90543059309
:10CB00001CB1012300936DE731B300200DB0BDE8E7
:10CB1000F08F00BF948C0508B48A050888010020B6
:10CB20009C020608E8290020040000100AEBCA0352
:10CB300007EB83034FEACA01079193F8101100290C
:10CB4000E3D1013283F81121032283F81021069BDF
:10CB5000002BDAD0D5F80080DFF86C939BF81839F9
:10CB600006EB8602C2EBC20231B20B919100089132
:10CB700009F1800101EB82020992ABB3D9F8E028F8
:10CB8000424500F01584012B2ED0D9F8F8289045A5
:10CB900000F01884022B27D0D9F81029424500F064
:10CBA0001A84032B20D0D9F82829424500F01D848F
:10CBB000042B19D0D9F84029424500F01D84052BDB
:10CBC00012D0D9F85829424500F01984062B0BD011
:10CBD000D9F87029424500F01684072B04D0D9F803
:10CBE0008829424500F0848303EB430209EBC2022B
:10CBF0000293C2F8E0885A1CD2B28BF81829134667
:10CC0000013B0299AB4A04938C2303FB069301EB8F
:10CC1000410102EBC10183F89160C3F88850C3F869
:10CC2000041195F804C04FEA1C13013B052B0CF0CE
:10CC30000F0C00F25183A0490A9301EB4300B0F8B6
:10CC400078E14EFA0CF010F0010012D0012000FA49
:10CC50000CFC0CF1FF3C0CEA0E004AF021FA96495C
:10CC60000A9B944A0B44C03293F88431184402EB77
:10CC7000C000019A9BF8003002F00101013113B1AC
:10CC800082F0010301938C2303FB0693490141F0D9
:10CC90000A01C3F894102A7A0CF090FD049B029AC2
:10CCA000934200F07382039B063BDBB20A93089A1F
:10CCB00082496032531807EE903A8C2306FB03F347
:10CCC00003F1680C0A468C4409EB03010020603331
:10CCD000A1F8E400C1F8E800CCE901004FF0600CD5
:10CCE00042F803C0019B13F00202089200F0788121
:10CCF000DB0003F00803A1F8EE300423A1F8F200F2
:10CD0000A1F8E4308C2303FB06930021C3F8E8105C
:10CD10004FF00A0C68799BF81C19A3F8F6C04FF085
:10CD2000010CC3F8F8C04FF0020CA3F8F400A3F80C
:10CD3000FCC0002900F0D081D3F804319C60236846
:10CD4000CDED017A23F001032360204642F0B6FBCB
:10CD5000009BDDED017A002B00F0AC818C2303FBFE
:10CD600006939BF81C090027C3E92677C3E92877B7
:10CD7000C3E92A77C3E92C77C3E92E77C3E9307773
:10CD8000C3E93277C3F8D070002800F06F81039AAE
:10CD90002968082A029A01F14C00494902EBC20EA7
:10CDA000D3F8042101EB4E111161AA69C3F8982050
:10CDB000C3E927014FF04001C3F8A4104FF0040E5F
:10CDC0004FF00301C3E93377C3E931E10CBF06211A
:10CDD0001221C3F8AC70C3F8BC70C3F8A8104FF4AC
:10CDE00080624FF48051C3E92C214FF48041C3F895
:10CDF000B8104FF400310A9AC3F8C0108C2303FB1B
:10CE00000693022AC3F8004100F2E580039908293D
:10CE1000294901EB820108BF5F27D1F88007294922
:10CE2000B1FBF0F101F12301C3F8D81018BF1327AB
:10CE30008C2101FB06912046D1F80431D1F888A05D
:10CE40009F80CDED037A0191DAF8007042F036FB55
:10CE50000199DDED037A002381F8D4309AF80510AA
:10CE60000C2914D8DFE811F0CB00130013001300D5
:10CE7000F400130013001300ED001300130013005F
:10CE80000D00BB8B23F400631B041B0CBB8317EE4C
:10CE9000902A384612F03CFC9AF805300C2B1DD82D
:10CEA000DFE803F0C61C1C1CBD1C1C1CB41C1C1C95
:10CEB000140000BFD0210020B48A0508701900209A
:10CEC000E82E002000D01213F0180020BB8B23F4B2
:10CED00000631B041B0C43F40063BB8309992068A7
:10CEE0008C2202FB069240234B62D2F8A410D2F8A7
:10CEF00098300B43D2F8AC100B43D2F8B0100B4370
:10CF0000D2F8B4100B43D2F8B8100B43D2F8BC10CF
:10CF10000B43D2F8C0100B43D2F8CC100B43D2F81D
:10CF2000D0100B43934901400B439BF81C0923602D
:10CF3000D2E9313167690B4327F007073B4363614F
:10CF4000D2F8A8306360D2F89C30A360D2F8A03049
:10CF5000E360236843F01003236090B3009B83B326
:10CF6000B8F800309BB243F00103A8F80030B8F8DD
:10CF70002020089B697992B25BB304238B409BB25B
:10CF800022EA0302A8F82020B8F8202092B2134326
:10CF9000A8F82030029A049B934200F0D2809BF8BC
:10CFA0000030002B5BD18C2303FB0696012086F812
:10CFB0008F000DB0BDE8F08F0023591C06919A46F2
:10CFC00067E592F8913006986B499022FFF72CF8AC
:10CFD000C6E70123D2E78D21C3F8D810132727E72E
:10CFE0005B0003F00203A1F8EC300123A1F8E2306A
:10CFF0004FF48073A1F8F03084E600216AE53B8BA2
:10D0000023F008031B041B0C3B8340E7BB8B23F07E
:10D0100008031B041B0C43F00803BB835EE73B8B38
:10D0200023F400631B041B0C43F400633B8355E7AC
:10D030003B8B23F008031B041B0C43F008033B83CA
:10D040004CE7BB8B23F008031B041B0CBB831EE7C0
:10D050003B8B23F400631B041B0C3B8317E72B68FB
:10D060006A7934334FF6FF7199509CE7059AC3F8FB
:10D0700098200B9A4149C3F8D00002EB820702EBDB
:10D08000470701EBC701C3F80811C3F8A010C3E9B3
:10D0900032004021C3F8A4100421C3F8C410296849
:10D0A0006F79C3F8AC0034313944C3F89C10C3F82D
:10D0B000BC0094E6079B32493248534407EB830790
:10D0C000D7F8F43083420CBF4FF400134FF48003C1
:10D0D000086B03430B6341E60C2800F2FF802A4BE8
:10D0E00003EB4000B0F8F416C84300B28C2303FBF6
:10D0F0000693A3F88C10D3F80431998A08409882DB
:10D100001DE6D5F8008092F811114FEA9822A2F599
:10D110008012522A3FF6F8AC1B4800EB020C9CF838
:10D120008CC1BCF10D0F40F2DC804FF0000C61456A
:10D130003FF412AD024492F88C210D2A7FF6C8AC60
:10D14000E3E4B8F800309BB243F08003A8F8003065
:10D15000B8F844306FEA43436FEA53439BB2A8F8F0
:10D160004430B8F800309BB243F00103A8F8003017
:10D1700015E700BF3F801CF0A59E0008E83700209F
:10D180000038024000600240B48A0508AC4B984564
:10D1900000F03D81B8F1804F00F03D81A3F57C4364
:10D1A000984500F0368103F58063984500F037819B
:10D1B00003F58063984500F0308103F5806398455E
:10D1C00000F0338103F58063984500F02C8103F56E
:10D1D0007043984500F0318103F57053984500F095
:10D1E0002A8103F58063984500F0238103F580636D
:10D1F000984500F01C81A3F5983398457BD003F542
:10D200008063984500F00D8103F58063984508BF61
:10D210000D2371D0B8F8003023F001031B041B0C60
:10D22000A8F80030D9F800305B0807EE903A039B6D
:10D23000063BDAB2022AF8EE677A0A9200F2998087
:10D24000804BDFED816A03EB820303F5F06292ED20
:10D25000007AB8EE477A87EE870A30EE260A4AF05F
:10D26000FBFE039B0138082B82B214BF13215F2100
:10D270007348B8F8003080459BB26FD000F58060ED
:10D2800080456BD0B8F1804F68D0A0F580308045E4
:10D2900064D000F58060804560D000F580608045F6
:10D2A0005CD06A48804570D000F5806080456CD0C5
:10D2B00023F440739BB2A8F80030614BC8F82C10DF
:10D2C0009845A8F8282040F089800023A8F830303D
:10D2D0000123A8F81430EAE40020CAE44FF0FF303C
:10D2E00004E7DFF878E11EF90CC020E7052364E6C7
:10D2F0000722029284E40B23524A02EBC30301216A
:10D3000093F8143703F01F025B09032B01FA02F2B2
:10D3100053D0042B26D14E490B6B13430B63B8F843
:10D32000003023F001031B041B0CA8F80030494B0C
:10D33000984510D0A3F5806398450CD003F5804341
:10D34000984508D003F58063984504D003F58063C1
:10D3500098457FF467AFD9ED007A68E723F0700352
:10D360009BB29EE7022BDAD139494B6C1A434A64CF
:10D37000D5E79FED397A9FED340AA7EE870A4AF088
:10D380006BFE013882B2132172E7A8F80030C8F8AA
:10D390002C10A8F828209BE701230EE602230CE6B8
:10D3A00003230AE6042308E6062306E6072304E629
:10D3B0000022029224E40823FFE525490B6C1A435E
:10D3C0000A64ACE7012202921AE40A23F5E5092374
:10D3D000F3E50B23F1E50222029211E41D4B98457F
:10D3E0003FF473AF74E70C23E7E50322029207E4EE
:10D3F0000E23E2E50D23E0E50422029200E405227B
:10D400000292FFF7FDBB06220292FFF7F9BB002351
:10D4100072E7022370E701236EE704236CE703231E
:10D420006AE70C2368E7062366E7052364E70A2317
:10D4300062E7092360E708235EE707235CE700BF94
:10D4400000000140B48A05080AD7233C00100040C0
:10D450000038024000040140FCF4B2349C0206088B
:10D4600038B5424C8C2303FB004393F88F3003B94B
:10D4700038BD94F8E0C494F8E1349C450ED003EB39
:10D48000430204EBC20292F8E4E40EF1FF35012DF1
:10D490004FEA430246D9BEF1030F3ED08C2202FB75
:10D4A0000042A2F88010EFF31181902383F31288D9
:10D4B000B2F8805092F8823043EA45030025C9B2A1
:10D4C0009BB282F8825081F3118829491A090D789C
:10D4D00082EA13225A4005B1D2431B019BB202F0EB
:10D4E0000F021A4391F81C395BBB8C2303FB0044E9
:10D4F000D1F8643AD4F8080101219847D4F804110E
:10D50000B4F88C508A8AD4F800312A438A82586051
:10D510001A6842F001021A6038BD5D1C05F003056F
:10D520006545BBD0134404EBC303034493F8F114E3
:10D530000029B3D08C2303FB0043012283F882200F
:10D54000ACE78C2303FB0044D1F8645AD4F888304C
:10D55000D4F804115B79086903F0FC031844042132
:10D56000A847D4F804318000988138BDF018002015
:10D570000400001030B50446006EA268838923F4CD
:10D5800000531B041B0C8381637995B013F0040FC7
:10D590004FF00001019214BF4FF480520A46ADF8DB
:10D5A00008201A031B0203F48063ADF80C302379C2
:10D5B000ADF80E1002F40052ADF80A20DA0744BFAD
:10D5C0000422ADF80E209B07ADF8101005D5BDF86C
:10D5D0000E3043F00803ADF80E3001A942F096F882
:10D5E0006279236ED50700F18B8012F0080F9A8ABA
:10D5F00048D092B242F008029A829A8992B242F4DA
:10D6000000529A812279D00732D5E06B002800F0D1
:10D6100089800023E26D0893CDE90C33CDE9103306
:10D62000CDE912334FF480750A936369E1680E9572
:10D6300006920793626C05924FF480634FF4803535
:10D640000B9309910F9541F039FF05A9E06B41F06B
:10D65000CBFFE26B216E136843F0010313608B8AEA
:10D660009BB243F040038B82536822799BB263657F
:10D6700091070DD4226E93899BB243F4005393819A
:10D6800015B030BD22F008021204120C9A82B4E7E1
:10D69000206C002852D02369A26D0993A36CCDE9B8
:10D6A0000532402300254FF4803108934FF4806306
:10D6B0000B930F91CDE90C55CDE91055CDE91255DD
:10D6C00007950A950E9541F0F9FE206C05A941F0E9
:10D6D0008BFF236C226E586940F0800058611868F7
:10D6E00040F0160018605D60938A9BB243F080039F
:10D6F00002F10C0193820B6843F040030B60BAE720
:10D700001E498B4224D0A1F54C418B421ED001F51D
:10D7100080618B421ED102200121FFF7DFF8627980
:10D72000236E62E74FF6DF711980D96841F020015E
:10D73000D960D96841F01001D96099E7226ED368A9
:10D7400043F0800302F10C01D360D4E70120E3E74A
:10D750000020E1E701F580618B420AD001F580618C
:10D760008B4208D001F544418B427FF43EAF052047
:10D77000D2E70320D0E70420CEE700BF001001402D
:10D780002DE9F84F4C4C04EB8004D4F8684A002C87
:10D790007BD0E56E002D74D01F46EB6A6361AB6AE7
:10D7A000A3616B8EE3602B8E23616B682366434B12
:10D7B0002360434BA160A3660646204691460DF0C8
:10D7C000BFFE94F871000DF055FD804695F82000DD
:10D7D00094F870B0A246002850D102233A0784F88A
:10D7E0007C3036D419F0020F10D0B8F1000F0DD0F4
:10D7F0000B2388F80630731C88F807303B0646D4A4
:10D8000095F82120404622210BF0D8FF19F0010F96
:10D8100004D1E26B9AB15046BDE8F88F58460DF03E
:10D8200029FD0028F5D00C220136C671827195F8C9
:10D83000212022210BF0C2FFE26B002AEBD195F8E8
:10D84000241095F82200890945F0AEFD5046BDE848
:10D85000F88F0136F6B2B8F1000F04D00B2388F828
:10D86000076088F8063017F0500F95F821204046E1
:10D8700014BF022112210BF0A1FFCAE746F03EFFC0
:10D88000ABE7AA465046BDE8F88FA246C3E794F836
:10D8900071000DF0EFFC226E938923F008031B0446
:10D8A00001211B0C938184F87C100028AED020212C
:10D8B0000DF06CF8AAE700BF0400001040920508C4
:10D8C000D1A7000808B572B6FDF73AFC00B583B0E1
:10D8D0000D49002200920091009B0C330093009BA5
:10D8E0001B68012B02D003B05DF804FB019201918B
:10D8F000019B06490C330193019B1A600B6883F36B
:10D9000008884B689847FEE7502800400000FF1F3A
:10D9100030B5012085B041F095FE7A4A936823F036
:10D9200003039360936813F00C0FFBD113687549E0
:10D93000002858D143F00103136041F288330A688C
